:020000040800F2
:10000000C0D00B24A5B90008B9030008C10300083B
:1000100031040008490400086104000800000000E1
:10002000000000000000000000000000891301082B
:10003000790400080000000061150108CFB900082C
:10004000D1B90008D1B90008D1B90008D1B9000868
:10005000D1B90008D1B90008D1B90008D1B9000858
:10006000D1B90008D1B90008D1B90008D1B9000848
:10007000D1B90008D1B90008D1B90008D1B9000838
:10008000D1B90008D1B90008D1B9000800000000BA
:10009000000000000000000000000000D1B90008CE
:1000A000D1B90008D1B90008D1B90008D1B9000808
:1000B000C1040008D1B90008D1B90008D1B90008BD
:1000C000D1B90008D1B90008D1B90008D1B90008E8
:1000D000D1B9000891160008D1B90008D1B90008BB
:1000E000D1B90008D1B9000800000000D1B900085A
:1000F000D1B90008D1B90008D1B90008D1B90008B8
:10010000D1B90008D1B9000851050008D1B90008DB
:10011000D1B90008D1B90008D1B90008D1B9000897
:10012000D1B90008D1B90008D1B90008D1B9000887
:10013000D1B90008D1B90008D1B900080000000009
:1001400000000000000000000000000000000000AF
:10015000D1B90008D1B9000859160008D1B9000872
:10016000D1B90008D1B90008D1B90008D1B9000847
:10017000D1B90008D1B90008D1B90008D1B9000837
:10018000D1B90008D1B90008D1B90008D1B9000827
:10019000D1B90008D1B90008D1B90008D1B9000817
:1001A000D1B90008D1B90008D1B90008D1B9000807
:1001B000D1B900080000000000000000D1B900081B
:1001C000D1B90008D1B9000800000000000000000B
:1001D0000000000000000000D1B90008000000008D
:1001E000000000000000000000000000000000000F
:1001F0000000000000000000D1B90008D1B90008DB
:10020000D1B90008D1B90008D1B900080000000038
:10021000D1B90008D1B90008D1B900080000000028
:10022000D1B9000800000000D1B9000800000000AA
:10023000D1B90008D1B9000800000000D1B9000808
:1002400000000000000000000000000000000000AE
:10025000000000000000000000000000000000009E
:1002600000000000D1B900080000000000000000FC
:10027000000000000000000000000000000000007E
:10028000D1B90008D1B9000800000000000000004A
:100290000000000000000000D1B90008D1B900083A
:1002A000D1B90008D1B90008D1B900080000000098
:1002B000000000000000000000000000000000003E
:1002C00000000000D1B90008D1B90008D1B9000878
:1002D000D1B90008D1B90008D1B90008D1B90008D6
:1002E000D1B90008D1B90008D1B90008D1B90008C6
:1002F000D1B90008D1B90008D1B90008D1B90008B6
:10030000D1B90008D1B9000800000000D1B9000837
:10031000D1B90008D1B90008D1B90008D1B9000895
:10032000D1B90008D1B90008D1B90008D1B9000885
:10033000D1B90008D1B90008D1B90008D1B9000875
:10034000D1B90008D1B90008D1B90008D1B9000865
:10035000D1B90008D1B90008D1B90008D1B9000855
:10036000D1B90008D1B90008D1B90008D1B9000845
:10037000D1B90008D1B90008D1B90008D1B9000835
:10038000D1B90008D1B90008D1B90008D1B9000825
:10039000D1B90008D1B90008D1B90008D1B9000815
:1003A000D1B90008DFF80CD026F0E8FC004800477F
:1003B00019070008C0D00B24FFE7FEE700BF00BF0D
:1003C00080B54BF6EC10C0F6070026F0E5FD4EF6C2
:1003D0002C50CEF2000001684BF65920C0F6070001
:1003E00026F0DAFD4EF62850CEF2000001684BF6FA
:1003F0004B20C0F6070026F0CFFD4EF63450CEF26B
:10040000000001684BF63C20C0F6070026F0C4FD52
:100410004EF63850CEF2000001684BF62E20C0F6A2
:10042000070026F0B9FDFFE7FEE700BF00BF00BFF1
:1004300080B54BF6D010C0F6070026F0ADFDFFE703
:10044000FEE700BF00BF00BF80B54BF61920C0F625
:10045000070026F0A1FDFFE7FEE700BF00BF00BFD9
:1004600080B54BF60220C0F6070026F095FDFFE7A9
:10047000FEE700BF00BF00BFFFE7FEE700BF00BF11
:1004800083B0019000914FF0500072B680F3118854
:10049000BFF36F8FBFF34F8F62B60290FFE7FEE7A7
:1004A00081B04FF0500072B680F31188BFF36F8FA8
:1004B000BFF34F8F62B60090FFE7FEE700BF00BFBB
:1004C00080B54FF0804001210AF0C6FA012809D119
:1004D000FFE74FF0804001210AF0F6FA00200BF010
:1004E000E3FAFFE780BD00BF80B58AB041F20300A8
:1004F00003F0D6FF40F60040C4F20000029006F080
:10050000A3FB04A8019006F02FFD0199029840F288
:100510002B12ADF8102000220392ADF81220ADF896
:100520001420079240F2E7330693ADF82020099299
:1005300006F02EFD029801210AF076FA029806F0E4
:1005400053FE039A32200F2103F0E2FD0AB080BD72
:1005500080B540F60040C4F2000001210AF07CFAA8
:10056000012810D1FFE740F60040C4F2000001214D
:100570000AF0AAFA0EF0D8FF012803D0FFE711F025
:10058000DBF8FFE7FFE780BD80B584B00120009075
:100590000BF026FA00980BF05FFA002001900BF0A8
:1005A0001FFA01980BF058FA022002900BF018FA8B
:1005B00002980BF051FA032003900BF011FA039804
:1005C0000BF04AFA04B080BD80B582B02520052129
:1005D000002203F09DFD41F20000C4F201000190F1
:1005E0000BF0EEFA019840F204710BF011F901984A
:1005F00004210BF04DF902B080BD00BF00BF00BF69
:1006000080B586B002A8019003F066FE00F028F8DD
:1006100000210091084600F037F8009901980291F6
:100620001F228DF80D208DF810108DF813108DF805
:10063000121001228DF811208DF80C1087238DF8EF
:100640000E308DF814208DF80F1003F061FE03F0CA
:1006500093FE042000F02CF806B080BD00BF00BF60
:10066000BFF35F8F4EF62451CEF20001086820F4EC
:10067000803008604EF69451CEF20001086820F0F8
:1006800001000860704700BF82B00190009101989E
:100690004EF69C51CEF20001086000984EF6A05133
:1006A000CEF20001086002B0704700BF00BF00BF7B
:1006B00081B00090009840F001004EF69451CEF2C7
:1006C000000108604EF62451CEF20001086840F4A3
:1006D00080300860BFF34F8FBFF36F8F01B070475A
:1006E00080B582B0019000919DF8041041F20000A5
:1006F000C4F201000AF078FCFFE741F20000C4F206
:10070000010040F207710BF063F808B9FFE7F4E766
:10071000019802B080BD000080B58CB00020089028
:1007200000F04EF94EF61450CEF20000006880033F
:10073000002801D5FFE71AE0BFF34F8FBFF36F8F9B
:100740004EF65071CEF2000100200860BFF34F8FCB
:10075000BFF36F8F4EF61451CEF20001086840F4DB
:1007600000300860BFF34F8FBFF36F8FFFE74EF687
:100770001450CEF200000068C003002801D5FFE746
:100780003CE04EF68451CEF2000100200860BFF339
:100790004F8F4EF68050CEF2000000680B900B9801
:1007A000C0F34E300A90FFE70B98C0F3C9000990E0
:1007B000FFE70A990998800761F34D104EF66071C2
:1007C000CEF2000108600998411E09910028F0D17D
:1007D000FFE70A98411E0A910028E5D1FFE7BFF321
:1007E0004F8F4EF61451CEF20001086840F480306D
:1007F0000860BFF34F8FBFF36F8FFFE7FFF700FF76
:10080000FFF7C2FE00F04CF940F6164003F048FE38
:1008100040F6174003F044FE4FF4407003F068FCCC
:10082000462000220492114603F072FC0499012034
:1008300003220BF051FB42F63421C2F20041086062
:1008400000F066F9FFF7C0FE41F20000C4F20100BB
:10085000059004210AF0E4FA059880210AF0F4FEDC
:10086000059840210AF0D8FE40F2BC00C2F20040D8
:10087000016842F2D860C2F20040069001604FF475
:10088000F061416042F28872C2F200428260C1604F
:1008900040F22001C2F20041416140F2CC01C2F2BB
:1008A0000041016142F24071C2F20041816142F2B5
:1008B0006471C2F20041C16111F08EFB8DF81F001E
:1008C0009DF81F0080B1FFE79DF81F2046F28C7055
:1008D000C2F205404BF6DC61C0F6070101F004FAF4
:1008E0004FF0FF30089065E040F2B800C2F20040DF
:1008F000016842F2FC60C2F20040039001603021C6
:10090000416042F28471C2F2004181601821C160ED
:1009100040F21001C2F20041416140F2C401C2F252
:100920000041016142F23871C2F20041816142F23C
:100930004871C2F20041C16111F04EFB8DF81F00F9
:100940009DF81F0080B1FFE79DF81F2046F28C70D4
:10095000C2F205404BF6DC61C0F6070101F0C4F9B4
:100960004FF0FF30089025E046F28C70C2F205404F
:1009700001F07EF848F26450C2F2004069464860D7
:100980000520086040F69130C0F600004BF6537128
:10099000C0F607014FF4806200230CF08DFD0DF0CE
:1009A0004FFEFFE74BF67E50C0F6070026F0F4FA44
:1009B00000F076FA08980CB080BD00BF00BF00BF01
:1009C00083B04EF61450CEF2000000688003002879
:1009D00001D5FFE71AE0BFF34F8FBFF36F8F4EF6DD
:1009E0005071CEF2000100200860BFF34F8FBFF3BB
:1009F0006F8F4EF61451CEF20001086840F40030BB
:100A00000860BFF34F8FBFF36F8FFFE74EF61450B0
:100A1000CEF200000068C003002801D5FFE73CE0EB
:100A20004EF68451CEF2000100200860BFF34F8FD4
:100A30004EF68050CEF20000006802900298C0F39B
:100A40004E300190FFE70298C0F3C9000090FFE725
:100A500001990098800761F34D104EF66071CEF257
:100A6000000108600098411E00910028F0D1FFE7C6
:100A70000198411E01910028E5D1FFE7BFF34F8F98
:100A80004EF61451CEF20001086840F48030086040
:100A9000BFF34F8FBFF36F8FFFE703B0704700BF07
:100AA00080B58AB04FF4805003F0FAFC4FF08040DC
:100AB000039006F0C9F804A8009006F055FA0099D2
:100AC000039847F22F52ADF81020002201920792AE
:100AD00042F20F730693ADF81420ADF81220ADF872
:100AE0002020099206F054FA019A1C20114603F0C6
:100AF0000FFB03980121029109F0E6FF0299039888
:100B000009F092FF039806F06FFB0AB080BD00BFAA
:100B100080B58EB040F6154003F0C2FC40F6174099
:100B200003F0BEFC0020C4F20200029001210391F8
:100B300001F052FC04A8019001F0BEFC019A029859
:100B400003993323049300230B9342F6402CC2F203
:100B5000004CCDF81CC0089309934FF400630C932C
:100B600041F22403C4F20103059306914FF440338C
:100B70000D9301F0DDFC0298039902F059F80398F7
:100B800002F01AFC0298039902F066F80EB080BDDC
:100B900080B588B00790012003900BF011FA014650
:100BA000039842F23472C2F20042116000210591B2
:100BB00003220BF091F9059A42F63421C2F200416A
:100BC00008600A20069030210BF086F9059A01464C
:100BD000069842F2B463C2F20043196018210BF088
:100BE0007BF9059A0146069842F2B863C2F20043C7
:100BF00019604FF4F06104910BF06EF90499059AB5
:100C00000346069843F2442CC2F2004CCCF8003064
:100C10000BF062F943F24821C2F20041086046F24B
:100C20008C70C2F20540D0F808084FF0FF310BF08D
:100C30006FFB012814D1FFE746F28C70C2F2054029
:100C400002904BF6E851C0F6070101F04DF802980A
:100C5000D0F80808002319461A460BF015FAFFE7EA
:100C600042F22070C2F200406946486008200860E5
:100C700040F6C960C0F600004BF64971C0F60701A6
:100C8000802200230CF018FC013058B9FFE746F22F
:100C90008C70C2F205404BF69431C0F6070101F0AA
:100CA00023F8FFE742F2F860C2F20040694648606C
:100CB0000520086040F65170C0F600004BF6367112
:100CC000C0F607014FF4205200230CF0F5FB013071
:100CD00038B9FFE74BF60F50C0F6070026F05CF975
:100CE000FFE742F21C70C2F20040694648600520EE
:100CF000086041F2A100C0F600004BF65E71C0F63C
:100D000007014FF4205200230CF0D6FB013038B914
:100D1000FFE74BF60F50C0F6070026F03DF9FFE75E
:100D200042F2B060C2F200406946486005200860A7
:100D300041F2F110C0F600004BF60D71C0F607014C
:100D40004FF4806200230CF0B7FB013038B9FFE7A5
:100D50004BF61140C0F6070026F01EF9FFE743F2FC
:100D60004020C2F20040694648600520086041F218
:100D70003920C0F600004BF6FB61C0F607014FF4C6
:100D8000806200230CF098FB013038B9FFE74BF686
:100D9000B830C0F6070026F0FFF8FFE742F2BC606B
:100DA000C2F20040694648600520086041F2812097
:100DB000C0F600004BF68571C0F607014FF4806263
:100DC00000230CF079FB013038B9FFE74BF61140F6
:100DD000C0F6070026F0E0F8FFE743F24C20C2F22D
:100DE0000040694648600520086041F22130C0F6A5
:100DF00000004BF66D71C0F607014FF480620023CE
:100E00000CF05AFB013038B9FFE74BF6B830C0F6AA
:100E1000070026F0C1F8FFE748F26050C2F2004038
:100E2000694648600420086041F2D930C0F60000ED
:100E30004BF61D71C0F607014FF4806200230CF0E1
:100E40003BFB013038B9FFE74BF66840C0F60700BE
:100E500026F0A2F8FFE742F62C20C2F200406946D5
:100E600048600420086041F24140C0F600004BF6A3
:100E70002A71C0F607014FF4806200230CF01CFBBE
:100E8000013038B9FFE74BF6BC40C0F6070026F04A
:100E900083F8FFE700200CF017FC08B080BD00BF0E
:100EA000BFF34F8F4EF60C51CEF20001086800F4EC
:100EB000E0600422C0F2FA5210430860BFF34F8F83
:100EC000FFE700BFFDE700BF80B582B00190FFE7FC
:100ED00046F28C70C2F20540D0F808084FF0FF319E
:100EE0000BF016FA01281ED1FFE742F23070C2F271
:100EF0000040026846F28870C2F20540036846F27C
:100F00008C70C2F2054000904BF61431C0F6070118
:100F100000F0EAFE0098D0F80808002319461A46A7
:100F20000BF0B2F8FFE742F23071C2F2004100204C
:100F3000086046F28871C2F20541086001200AF09B
:100F4000B3FD4FF47A700CF0EFFEC1E700BF00BFB5
:100F500080B586B00590FFE700208DF81300FFE70D
:100F600042F23470C2F2004000684FF47A710BF024
:100F7000CFF901280ED0FFE746F28C70C2F205408F
:100F80004BF63931C0F6070100F0AEFE64200CF0DC
:100F9000CBFEE5E70DF060FD019002200AF05CFD5C
:100FA00043F24420C2F20040006840F2BC01C2F2A9
:100FB000004109684FF0FF320BF03EFD01280BD0D5
:100FC000FFE746F28C70C2F205404BF67C21C0F67A
:100FD000070100F089FEFFE742F2D860C2F200404C
:100FE00011F00EF98DF813009DF8130088B1FFE79A
:100FF0009DF8132046F28C70C2F205404BF6655105
:10100000C0F6070100F070FE4FF47A700CF08CFE11
:10101000A6E743F24820C2F20040006842F288711D
:10102000C2F2004109684FF0FF3200230BF02CF8A8
:1010300001280BD0FFE746F28C70C2F205404BF658
:101040004461C0F6070100F04FFEFFE742F2347042
:10105000C2F200400068002319461A460BF014F84B
:1010600002200AF00DFD0DF0F7FC009000980199A8
:10107000421A46F28C70C2F205404BF66A61C0F625
:10108000070100F031FE46F28871C2F2054108689E
:101090000130086064200CF047FE61E700BF00BF2C
:1010A00080B586B00590FFE700208DF81300FFE7BC
:1010B00042F23470C2F2004000684FF47A710BF0D3
:1010C00027F901280ED0FFE746F28C70C2F20540E6
:1010D0004BF66531C0F6070100F006FE64200CF007
:1010E00023FEE5E70DF0B8FC029003200AF0B4FC03
:1010F00042F2B460C2F20040006840F2B801C2F2AD
:10110000004109684FF0FF320BF096FC01280BD02C
:10111000FFE746F28C70C2F205404BF6A121C0F603
:10112000070100F0E1FDFFE742F2FC60C2F200407F
:1011300011F066F88DF813009DF8130088B1FFE7F1
:101140009DF8132046F28C70C2F205404BF66551B3
:10115000C0F6070100F0C8FD4FF47A700CF0E4FD12
:10116000A6E742F2B860C2F20040006842F2847121
:10117000C2F2004109684FF0FF3200230AF084FFF9
:1011800001280BD0FFE746F28C70C2F205404BF607
:101190002161C0F6070100F0A7FDFFE742F23470BD
:1011A000C2F200400068002319461A460AF06CFF9C
:1011B00003200AF065FC0DF04FFC019001980299A4
:1011C000421A46F28C70C2F205404BF6A561C0F699
:1011D000070100F089FD42F23071C2F20041086857
:1011E0000130086064200CF09FFD61E700BF00BF84
:1011F00080B582B00190FFE742F2B460C2F20040D5
:10120000006847F6D061C0F602014FF0FF320023BC
:101210000AF03AFF01280BD0FFE746F28C70C2F2C9
:1012200005404BF62161C0F6070100F05DFDFFE7C8
:1012300064200CF079FDDFE780B582B00190FFE714
:1012400043F24420C2F2004000684CF26431C0F620
:1012500007014FF0FF3200230AF016FF01280BD0E0
:10126000FFE746F28C70C2F205404BF6FC51C0F627
:10127000070100F039FDFFE764200CF055FDDFE7C2
:1012800080B592B01190FFE742F2B860C2F2004020
:1012900000680BA94FF0FF320BF0CEFB01280BD0FA
:1012A000FFE746F28C70C2F205404BF6EC21C0F627
:1012B000070100F019FDFFE79DED0B0A9DED0C1AEB
:1012C0009DED0D2A9DED0E3AB7EEC00AB7EEC11A9C
:1012D000B7EEC22AB7EEC33A9DED0F4AB7EEC44A45
:1012E0009DED105AB7EEC55A684680ED085B80ED5B
:1012F000064B80ED043B80ED022B80ED001B53EC90
:10130000102B46F28C70C2F205404BF6B751C0F676
:10131000070100F0E9FC64200CF006FDB4E700BF13
:1013200080B5ADF5F76DCDF8B407FFE743F248207F
:10133000C2F2004000680DA94FF0FF320BF07CFBB9
:1013400001280BD0FFE746F28C70C2F205404BF645
:10135000C221C0F6070100F0C7FCFFE79DED0D0AB2
:101360009DED0E1AB7EEC00AB7EEC11A0DA800F532
:10137000EE6191ED002AB7EEC22A00F2747191ED90
:10138000003AB7EEC33A00F5EF6191ED004AB7EECF
:10139000C44A00F27C7090ED005AB7EEC55A684618
:1013A00080ED0A5B80ED084B80ED063B80ED042B61
:1013B00080ED021B80ED000B46F28C70C2F20540FE
:1013C0004BF69E51C0F60701502200F08DFC6420C0
:1013D0000CF0AAFCAAE700BF80B584B00390FFE739
:1013E00046F28C70C2F2054000F0D2FB08B3FFE772
:1013F00047F66050C2F2004001904FF40061029144
:1014000025F0B3FA0199029A46F28C70C2F20540B7
:1014100000F036FD00F0B0F8FFE742F2D060C2F213
:101420000040007820B9FFE764200CF07DFCF4E771
:10143000FFE74FF4FA700CF077FCD1E700BF00BF74
:1014400080B58CB00390FFE742F63420C2F2004032
:1014500000684FF0FF310AF05BFF012840F0888000
:10146000FFE742F64020C2F200400B904FF40060CC
:101470000A900A98012820DBFFE70A980B9901F0EF
:101480001F01084409900B980890BFF34F8FFFE7A6
:1014900008984EF65C71CEF2000108600898203082
:1014A000089009982038099009980028F0DCFFE797
:1014B000BFF34F8FBFF36F8FFFE746F28C70C2F21E
:1014C0000540D0F808084FF0FF310AF021FF01284D
:1014D0004DD1FFE742F63020C2F20040027846F2DA
:1014E0008C70C2F205404BF66721C0F6070100F090
:1014F000FBFB42F64020C2F2004001904FF4006135
:10150000029125F032FA0199029807910690069807
:10151000012820DBFFE70698079901F01F01084426
:10152000059007980490BFF34F8FFFE704984EF69D
:101530005C71CEF200010860049820300490059898
:101540002038059005980028F0DCFFE7BFF34F8FA7
:10155000BFF36F8FFFE746F28C70C2F20540D0F800
:101560000808002319461A460AF08EFDFFE7FFE738
:1015700064200CF0D9FB67E780B592B042F2D061ED
:10158000C2F200410020087047F66050C2F20040ED
:1015900011904FF4006010901098012820DBFFE7B5
:1015A0001098119901F01F0108440F9011980E90A6
:1015B000BFF34F8FFFE70E984EF66871CEF2000131
:1015C00008600E9820300E900F9820380F900F98DA
:1015D0000028F0DCFFE7BFF34F8FBFF36F8FFFE70B
:1015E00040F20040C4F2020002900721039100F093
:1015F000F3FE04A8019000F05FFF019A029803999E
:101600003423049340230B9347F66053C2F2004304
:1016100007930023089309934FF400630C9341F25E
:101620002803C4F201030593012306934FF44033CA
:101630000D9300F07DFF0298039901F0F9FA0298EA
:101640000399102201F04CFC0298039901F004FB6D
:1016500012B080BD00BF00BF80B540F20040C4F2B0
:1016600002000721202201F0A3FC78B1FFE740F23D
:101670000040C4F202000721202201F009FE42F2DC
:10168000D061C2F2004101200870FFE780BD00BFB9
:1016900080B584B00020039041F20000C4F2010044
:1016A0000421C0F204710AF01BF9002840D0FFE7C2
:1016B00041F20000C4F2010040F204710AF0A8F8FF
:1016C00003200AF0F1F90020C4F202000190012188
:1016D000029101F06DF9029902460198C2F500638A
:1016E00042F63022C2F20042137092F800C042F675
:1016F0004023C2F20043002203F80C2001F0C0FA9C
:10170000019802994FF4006201F042F901980299A0
:10171000202201F0B1FB0198029901F09DFA42F6F6
:101720003420C2F20040006803A90BF0CDF8FFE7B7
:10173000FFE7039860B1FFE74EF60451CEF20001D7
:101740004FF080500860BFF34F8FBFF36F8F00E002
:10175000FFE7FFE704B080BD80B592B01190002094
:10176000ADF84200ADF840000F900E900D9042F69B
:101770003060C0F23000CDF82F0043F27600C3F2A3
:101780002E000B90119880690A901198002800F0A3
:10179000F780FFE74CF24D00C0F6070025F0FCFB98
:1017A00040F2D400C2F2004001684CF2D020C0F6F2
:1017B000070025F0F1FB119800684DF68361C4F233
:1017C0001B31A0FB0110810C4CF2EF20C0F607008A
:1017D00025F0E2FB119800798DF82D0011984079E1
:1017E0008DF82F00119880798DF831004CF2B220DD
:1017F000C0F607000BA925F0CFFB119881684CF2C9
:101800008320C0F6070025F0C7FB1198818940F2BC
:10181000D800C2F2004050F821104CF29720C0F6D8
:10182000070025F0B9FB1198C1894CF26520C0F67C
:10183000070025F0B1FB119890ED051AB7EEC10A2B
:101840009FED542A81EE021AB7EEC11A684680ED68
:10185000001B53EC102B4CF23D20C0F6070025F086
:101860009BFB4CF22710C0F6070025F095FB4BF6CA
:10187000EC70C0F6070025F08FFB4CF2E510C0F6C7
:101880000700099025F088FB4CF2E620C0F607001F
:10189000694608611020C8604CF20E30C0F607009F
:1018A0008860122048604CF22730C0F607000860BC
:1018B0004CF22C30C0F607004CF22432C0F607027E
:1018C0000C210E2325F068FB099825F065FB00200C
:1018D000ADF84000FFE7BDF840001199C989884282
:1018E00041DAFFE7BDF84000ADF842001198006909
:1018F000BDF8401050F821000F900A98BDF8401034
:1019000050F821000E909DED0E0A119890ED051AE9
:1019100080EE010A8DED0D0ABDF842200F989DED75
:101920000E0AB7EEC00A9DED0D1A9FED1B2A21EE9F
:10193000021AB7EEC11A694681ED061B0E230B6130
:1019400081ED020B4B6008604CF2B000C0F607005E
:101950000B21112325F020FBFFE7BDF840000130EB
:10196000ADF84000B7E74CF2E510C0F6070025F0EF
:1019700013FB4CF2C700C0F6070025F00DFB06E094
:101980004CF28710C0F6070025F006FBFFE712B007
:1019900080BD00BF00007A440000C84200BF00BF05
:1019A0004EF21002CEF20002106840F00400106007
:1019B0004EF21401CEF200016FF07F4008604EF24B
:1019C0001801CEF2000100200860116841F0010109
:1019D000116000BF46F28471C2F205410860704791
:1019E00084B08DED030A02904EF21800CEF2000092
:1019F00000680190002000900298E8B1FFE701998B
:101A00006FF07F40401A00EE100AB8EE400A9DEDDC
:101A1000021AB8EE411A80EE010A9DED031A46F251
:101A20008470C2F2054090ED002AB8EE422AA1EE81
:101A3000020A8DED000AFFE79DED000A9FED021AF4
:101A400020EE010A04B070470024744900BF00BFB3
:101A50004EF21001CEF20001086820F0010008608B
:101A600000BF46F28471C2F2054100200860704751
:101A700080B582B00190019800210091C0F8001853
:101A80000198C0F80418012003220AF025FA009BEF
:101A90000199C1F808080198D0F8080819461A46B3
:101AA0000AF0F2FA02B080BD80B584B002908DF8E1
:101AB0000710029800F020F820B1FFE700208DF811
:101AC0000F0013E00298D0F8000800909DF807007E
:101AD0000299009A8854009801306FF3DF20029930
:101AE000C1F8000801208DF80F00FFE79DF80F00F6
:101AF00004B080BD00BF00BF81B000900098D0F856
:101B0000000801306FF3DF200099D1F80418401A63
:101B1000B0FA80F0400901B0704700BF00BF00BFBD
:101B200080B584B002900191029800F021F820B1B4
:101B3000FFE700208DF80F0013E00298D0F80408AA
:101B4000009002980099405C01990870009801305B
:101B50006FF3DF200299C1F8040801208DF80F000F
:101B6000FFE79DF80F0004B080BD00BF00BF00BFBD
:101B700081B000900098D0F800080099D1F80418BE
:101B8000401AB0FA80F0400901B0704700BF00BFB2
:101B900084B002900298D0F8000801900298D0F822
:101BA0000408009001980099884205D3FFE7019846
:101BB0000099401A039006E000990198401A00F538
:101BC00000600390FFE7039804B0704700BF00BFB8
:101BD00080B582B001900198FFF7DAFF014640F22C
:101BE000FF70401A02B080BD80B58CB00A90099198
:101BF0000892089828B1FFE70A98FFF77DFF18B10F
:101C0000FFE700200B9046E00A98FFF7E1FF0790FE
:101C100008980799884203D2FFE70898029002E0EB
:101C200007980290FFE7029806900A98D0F80008FB
:101C300005900598C0F500600699884205D2FFE737
:101C40000598C0F50060019002E006980190FFE75A
:101C5000019804900A98059908440999049A24F077
:101C60006BFE06980499401A0390039840B1FFE771
:101C70000A980999049A1144039A24F05DFEFFE73B
:101C80000598069908446FF3DF200A99C1F8000807
:101C900006980B90FFE70B980CB080BD00BF00BF0B
:101CA00080B584B002900191019818B9FFE7002037
:101CB000039013E0019824F063FE00900098B0F1C7
:101CC000FF3F04D9FFE74FF0FF300090FFE7029895
:101CD0000199009AFFF788FF0390FFE7039804B08B
:101CE00080BD00BF00BF00BF82B080B5A6B0299301
:101CF000289224902391249818B1FFE7239818B9CB
:101D0000FFE7002025901EE028A80290239A029B5E
:101D100003A8802125F06AF901900198B0F1FF3FF6
:101D200003DCFFE7002025900DE00198802803DB0D
:101D3000FFE77F200190FFE72498019A03A9FFF7AE
:101D400053FF2590FFE7259826B0BDE8804002B0FC
:101D5000704700BF00BF00BF80B58AB008900791F0
:101D60000692069828B1FFE70898FFF701FF18B11F
:101D7000FFE7002009903DE00898FFF709FF059074
:101D800005980699884203D2FFE70598019002E082
:101D900006980190FFE7019804900898D0F804088D
:101DA00003900398C0F500600499884205D2FFE7CC
:101DB0000398C0F50060009002E004980090FFE7EF
:101DC0000098029007980899039A1144029A24F007
:101DD000B3FD04980299884209D9FFE70798029B4E
:101DE00018440899049AD21A24F0A6FDFFE7049833
:101DF0000990FFE709980AB080BD00BF00BF00BF8F
:101E000080B584B003900291019203980299019ADF
:101E1000FFF7A2FF0090009858B1FFE70398D0F8B1
:101E20000408009908446FF3DF200399C1F80408FF
:101E3000FFE7009804B080BD80B586B0059004919E
:101E40000598FFF7A5FE039004980399884203D2F2
:101E5000FFE70498019002E003980190FFE70198E2
:101E600002900598D0F80408029908446FF3DF2027
:101E70000599C1F80408029806B080BD00BF00BFF4
:101E800080B58AB0089007910692069828B1FFE7BE
:101E90000898FFF76DFE18B1FFE70020099045E0B4
:101EA0000898FFF775FE059005980699884203D2B9
:101EB000FFE70598019002E006980190FFE701987E
:101EC00004900898D0F8040803900398C0F50060C7
:101ED0000499884205D2FFE70398C0F5006000909E
:101EE00002E004980090FFE7009802900798089994
:101EF000039A1144029A24F01FFD04980299884223
:101F000009D9FFE70798029B18440899049AD21A46
:101F100024F012FDFFE70398049908446FF3DF20D3
:101F20000899C1F8040804980990FFE709980AB0D5
:101F300080BD00000000000080B582B04EF68851E0
:101F4000CEF20001086840F47000086044F20041DD
:101F5000C5F60201086840F080400860FFE744F2DF
:101F60000040C5F602000068C00F08B9FFE7F6E7B9
:101F700044F24C41C5F60201086840F001000860D7
:101F800040F26841C5F60001086820F001000860D1
:101F900044F20841C5F60201086820F00300086019
:101FA00044F20042C5F6020210684FF6FF73CEF607
:101FB000F2231840106044F2C442C5F602021068D1
:101FC0004FF6FE73CAF6FF7318401060086840F2BF
:101FD0000C32C0F2C0021040086044F28C41C5F6D9
:101FE00002010868CC22C7F600621040086044F283
:101FF0009041C5F60201086848F28002C8F68802DE
:102000001040086044F29441C5F6020108684EF69B
:10201000C072CCF2FF321040086044F2D041C5F6E5
:102020000201086840F201329043086044F2F04136
:10203000C5F60201086848F68802CFF6887210409B
:10204000086044F20C41C5F602010020C1F2FF40D5
:10205000086044F2CC41C5F602014FF4E00008608C
:1020600044F20441C5F6020142F22000C0F2001021
:10207000086044F28441C5F6020142F22000C0F239
:102080000110086044F28841C5F60201086044F27C
:102090009841C5F6020100200190086044F2804298
:1020A000C5F6020240F20111C0F20101116044F2D2
:1020B000D841C5F60201086044F29C41C5F6020110
:1020C000086044F2A041C5F60201086044F2A44150
:1020D000C5F60201086000F007F801994FF00060B2
:1020E00002F0AAF802B080BD80B500F0B5F880BD5E
:1020F00087B0002006900590049003900290019014
:1021000044F20840C5F602000068C0F38100069062
:1021100006980090032800F29A800099DFE801F009
:102120000223192D44F2C440C5F602000068C0F332
:102130000141012088400590059949F20000C0F254
:10214000D030B0FBF1F040F20C01C2F20041086067
:102150007EE040F20C01C2F2004140F60010C0F2F5
:102160003D00086074E040F20C01C2F2004147F605
:102170004000C0F27D1008606AE044F20441C5F6F8
:102180000201086800F03F000490086847F6C0723A
:102190000240012000EB92120392096801F4FE0153
:1021A00000EB1140029044F29840C5F6020000682E
:1021B000C0F3014001900198F8B9FFE744F2C44030
:1021C000C5F602000068C0F3014101208840059077
:1021D000059949F20000C0F2D030B0FBF1F004994B
:1021E000B0FBF1F0039948430299B0FBF1F040F2E3
:1021F0000C01C2F20041086028E00198012812D1C8
:10220000FFE7049940F60010C0F23D00B0FBF1F08A
:10221000039948430299B0FBF1F040F20C01C2F27D
:102220000041086011E0049947F64000C0F27D10BB
:10223000B0FBF1F0039948430299B0FBF1F040F292
:102240000C01C2F200410860FFE7FFE700E0FFE792
:1022500007B0704700BF00BF84B000200390029019
:1022600044F20041C5F60201086840F4803008607D
:10227000FFE703980130039044F20040C5F60200E6
:10228000006800F400300290FFE7029900200190FE
:1022900041B9FFE703984FF6FF71401A18BF0120BC
:1022A0000190FFE70198C0070028E2D1FFE744F260
:1022B0000040C5F6020000688003002802D4FFE752
:1022C000FFE7FEE744F24C41C5F60201086840F022
:1022D0000100086040F26841C5F60001086840F05E
:1022E0000100086044F20841C5F602010091086847
:1022F00040F080000860086840F08060086008686E
:1023000040F00050086008680860086840F4805099
:10231000086044F29841C5F6020108684FF6F87269
:10232000CFF6FC721040086008680622C0F2020274
:102330001043086044F20441C5F60201086848F2FF
:102340000002C0F2800210400860086841F6C552E1
:10235000C0F200121043086044F28041C5F6020149
:10236000086820F07F000860086840F001000860FD
:10237000086840F06070086044F20041C5F6020150
:10238000086840F080700860FFE744F20040C5F63E
:10239000020000688001002801D4FFE7F5E744F25D
:1023A0000841C5F60201086820F0030008600868CB
:1023B00040F003000860FFE744F20840C5F6020061
:1023C000006800F00C000C2801D0FFE7F4E704B02F
:1023D000704700000000000082B001908DF80310EB
:1023E00001989DF8031001EB410100EBC101086960
:1023F00020F00100086101989DF8031001EB4101F4
:1024000000EBC1010020086101999DF8032002EB57
:10241000420201EBC201486101999DF8032002EBE1
:10242000420201EBC201886101999DF8032002EB91
:10243000420201EBC201C86101999DF8032002EB41
:10244000420201EBC201086201999DF8032002EBF0
:10245000420201EBC20148629DF80300032811DC2F
:10246000FFE79DF8031001EB4100400001F002017D
:1024700000EB41013D2000FA01F201998868104308
:10248000886015E09DF8030004388DF803009DF87E
:10249000031001EB4100400001F0020100EB41019B
:1024A0003D2000FA01F20199C8681043C860FFE7B7
:1024B00002B0704700BF00BF81B0009000990020BB
:1024C000086000994860009A01219160009AD060EC
:1024D000009A1161009A5061009A91610099C86157
:1024E000009908620099486201B0704700BF00BFC0
:1024F00081B0009000990020086000994860009920
:102500008860009A0121D160009A1061009A5061A0
:10251000009A9161009AD061009A1062009A9162CB
:102520000099C862009908630099486301B0704738
:1025300084B003908DF80B10019203989DF80B1056
:1025400001EB410100EBC101486A20F00400486240
:102550000198406803999DF80B2002EB420201EBC1
:10256000C20188610198C06803999DF80B2002EBB5
:10257000420201EBC201C8610198006A03999DF80B
:102580000B2002EB420201EBC201486103989DF867
:102590000B1001EB410100EBC100006900900098B5
:1025A00048F23F71CFF6FC7108400090019A5069E3
:1025B000D169526A40EA8000104301430098084301
:1025C0000090009803999DF80B2002EB420201EB6A
:1025D000C20108610198806860B9FFE703989DF81F
:1025E0000B1001EB410100EBC101086940F40070E0
:1025F000086128E00198806801280CD1FFE7039862
:102600009DF80B1001EB410100EBC101086920F4BA
:102610000070086116E003989DF80B1001EB410172
:1026200000EBC101086940F40070086103989DF84F
:102630000B1001EB410100EBC101086940F40040BF
:102640000861FFE7FFE70198006960B9FFE70398B9
:102650009DF80B1001EB410100EBC101086940F44A
:10266000806008610BE003989DF80B1001EB4101BD
:1026700000EBC101086920F480600861FFE7019860
:10268000806960B9FFE703989DF80B1001EB4101E9
:1026900000EBC101086940F4807008610BE0039809
:1026A0009DF80B1001EB410100EBC101086920F41A
:1026B00080700861FFE703980021C4F2020188429C
:1026C00016D1FFE79DF80B2040F60001C4F202018D
:1026D00051F8220020F0FF0041F822000198036821
:1026E0009DF80B2051F82200184341F8220015E014
:1026F0009DF80B2040F62001C4F2020151F822009F
:1027000020F0FF0041F82200019803689DF80B209B
:1027100051F82200184341F82200FFE704B0704747
:1027200084B003908DF80B1001920198406A0399D0
:102730009DF80B2002EB420201EBC2014A6A1043F2
:1027400040F0040048620198406803999DF80B200E
:1027500002EB420201EBC201886101980069039912
:102760009DF80B2002EB420201EBC201C861019807
:10277000006B03999DF80B2002EB420201EBC201B2
:10278000486103989DF80B1001EB410100EBC1007B
:1027900000690090009848F23F71CFF61C61084034
:1027A0000090019B9868D3F814C0DA69196A40EA6E
:1027B0000C00D3F834C040EA0C00DB6A1843104325
:1027C0000143009808430090009803999DF80B205E
:1027D00002EB420201EBC20108610198C06860B9D6
:1027E000FFE703989DF80B1001EB410100EBC101DD
:1027F000086940F40070086128E00198C068012869
:102800000CD1FFE703989DF80B1001EB410100EBA1
:10281000C101086920F40070086116E003989DF872
:102820000B1001EB410100EBC101086940F400709D
:10283000086103989DF80B1001EB410100EBC10109
:10284000086940F400400861FFE7FFE701988069EC
:1028500060B9FFE703989DF80B1001EB410100EB15
:10286000C101086940F4806008610BE003989DF89D
:102870000B1001EB410100EBC101086920F48060FD
:102880000861FFE70198806A60B9FFE703989DF847
:102890000B1001EB410100EBC101086940F48070AD
:1028A00008610BE003989DF80B1001EB410100EB70
:1028B000C101086920F480700861FFE703980021D6
:1028C000C4F20201884216D1FFE79DF80B2040F6C2
:1028D0000001C4F2020151F8220020F0FF0041F88B
:1028E0002200019803689DF80B2051F8220018433C
:1028F00041F8220015E09DF80B2040F62001C4F2BB
:10290000020151F8220020F0FF0041F82200019856
:1029100003689DF80B2051F82200184341F822006B
:10292000FFE704B0704700BF83B002908DF8071036
:102930000092009802999DF8072002EB420201EBF9
:10294000C201886103B0704783B002908DF8071010
:102950008DF8062000939DF8060050B1FFE700981F
:1029600002999DF8072002EB420201EBC2010862C6
:1029700009E0009802999DF8072002EB420201EB62
:10298000C201C861FFE703B0704700BF00BF00BFCE
:1029900083B002908DF807100092009802999DF87C
:1029A000072002EB420201EBC201486103B070470D
:1029B00082B001908DF8031001989DF8031001EB8F
:1029C000410100EBC100406902B0704700BF00BF89
:1029D00084B003908DF80B10019203989DF80B10B2
:1029E00001EB410100EBC10000690090009820F468
:1029F0004030009001990098084300900098039996
:102A00009DF80B2002EB420201EBC201086104B009
:102A1000704700BF00BF00BF84B003908DF80B105B
:102A2000019203989DF80B1001EB410100EBC100EE
:102A300000690090009820F0C07000900199009803
:102A400008430090009803999DF80B2002EB420286
:102A500001EBC201086104B0704700BF00BF00BFB6
:102A600084B003908DF80B10019203989DF80B1021
:102A700001EB410100EBC10000690090009820F4D7
:102A8000C0000090019900980843009000980399B5
:102A90009DF80B2002EB420201EBC201086104B079
:102AA000704700BF00BF00BF84B003908DF80B10CB
:102AB000019203989DF80B1001EB410100EBC1005E
:102AC00000690090009820F4C0400090019900989F
:102AD00008430090009803999DF80B2002EB4202F6
:102AE00001EBC201086104B0704700BF00BF00BF26
:102AF00084B003908DF80B10019203989DF80B1091
:102B000001EB410100EBC10000690090009820F446
:102B1000C0500090019900980843009000980399D4
:102B20009DF80B2002EB420201EBC201086104B0E8
:102B3000704700BF00BF00BF82B001908DF8031046
:102B40008DF802209DF8020060B9FFE701989DF81A
:102B5000031001EB410100EBC101086940F4806002
:102B600008610BE001989DF8031001EB410100EBB7
:102B7000C101086920F480600861FFE702B0704776
:102B800082B001908DF803108DF802209DF80200AC
:102B900060B9FFE701989DF8031001EB410100EBDC
:102BA000C101086940F40070086128E09DF8020046
:102BB00001280CD1FFE701989DF8031001EB4101BA
:102BC00000EBC101086920F40070086116E001986B
:102BD0009DF8031001EB410100EBC101086940F4CD
:102BE0000070086101989DF8031001EB410100EBB2
:102BF000C101086940F400400861FFE7FFE702B047
:102C0000704700BF00BF00BF82B001908DF8031075
:102C100001989DF8031001EB410100EBC101086927
:102C200040F48070086102B0704700BF00BF00BF71
:102C300082B001908DF8031001989DF8031001EB0C
:102C4000410100EBC101086920F48070086102B005
:102C5000704700BF00BF00BF82B001908DF8031025
:102C600001989DF8031001EB410100EBC1010869D7
:102C700040F00100086102B0704700BF00BF00BF14
:102C800082B001908DF8031001989DF8031001EBBC
:102C9000410100EBC101086920F00100086102B0A8
:102CA000704700BF00BF00BF83B002908DF80710CF
:102CB0008DF8062002989DF8071001EB410100EB0A
:102CC000C10000690090009820F0C00000909DF8BD
:102CD0000610009808430090009802999DF807207C
:102CE00002EB420201EBC201086103B0704700BF72
:102CF00084B003908DF80B10019200930198039912
:102D00009DF80B2002EB420201EBC2010862009821
:102D100060B9FFE703989DF80B1001EB410100EB50
:102D2000C101086920F4002008610BE003989DF8B8
:102D30000B1001EB410100EBC101086940F40020D8
:102D40000861FFE704B0704783B001908DF803106D
:102D500001989DF8031001EB410100EBC1000069EF
:102D60000003002803D5FFE70120029002E00020C5
:102D70000290FFE7029803B0704700BF00BF00BF9A
:102D800082B001908DF8031001989DF8031001EBBB
:102D9000410100EBC101086940F48020086102B0E4
:102DA000704700BF00BF00BF82B001908DF80310D4
:102DB00001989DF8031001EB410100EBC101086986
:102DC00020F48020086102B0704700BF00BF00BF40
:102DD00082B001908DF8031001989DF8031001EB6B
:102DE000410100EBC100406AC0F3C20002B070476D
:102DF00084B002908DF8071000929DF80700032818
:102E000018DCFFE70298006800999DF8073003EB93
:102E10004302520003F0020302EB430291400842D6
:102E200004D0FFE701208DF80F0020E000208DF88E
:102E30000F001CE09DF8070004388DF80700029889
:102E4000406800999DF8073003EB4302520003F0FD
:102E5000020302EB43029140084204D0FFE7012045
:102E60008DF80F0003E000208DF80F00FFE79DF8BC
:102E70000F0004B0704700BF83B002908DF80710B8
:102E800000929DF80700032811DCFFE700989DF8E9
:102E9000072002EB4201490002F0020201EB42016D
:102EA00000FA01F2029988681043886015E09DF8E5
:102EB000070004388DF8070000989DF8072002EB02
:102EC0004201490002F0020201EB420100FA01F264
:102ED0000299C8681043C860FFE703B0704700BF9D
:102EE00083B002908DF807100092009800F08000E7
:102EF00080280CD0FFE7009A02989DF8071001EB9C
:102F0000410100EBC10108691043086118E0029813
:102F10009DF8071001EB410100EBC101486A40F048
:102F200080004862009820F0800202989DF8071007
:102F300001EB410100EBC101086910430861FFE7A3
:102F400003B0704700BF00BF83B002908DF8071038
:102F50000092009800F0800080280CD0FFE7009AD3
:102F600002989DF8071001EB410100EBC1010869CF
:102F70009043086119E002989DF8071001EB4101A8
:102F800000EBC101486A20F080004862009980206F
:102F900060EA010202989DF8071001EB410100EB85
:102FA000C101086910400861FFE703B0704700BF26
:102FB00089B007908DF81B100592002004900390B3
:102FC0009DF81B008DF80B009DF81B00032800F3F3
:102FD000A480FFE705980138014601911F2800F2FF
:102FE0009A800199DFE801F01097972B9797974601
:102FF0009797979797979761979797979797979797
:10300000979797979797977C0798006805999DF8E9
:103010001B3003EB4302520003F0020302EB4302B6
:1030200091400840039007989DF81B1001EB410167
:1030300000EBC100406A00F0800004906CE007984B
:10304000006805999DF81B3003EB4302520003F022
:10305000020302EB430291400840039007989DF859
:103060001B1001EB410100EBC100006900F0020000
:10307000049051E00798006805999DF81B3003EB18
:103080004302520003F0020302EB43029140084066
:10309000039007989DF81B1001EB410100EBC10064
:1030A000006900F00400049036E007980068059974
:1030B0009DF81B3003EB4302520003F0020302EBC6
:1030C000430291400840039007989DF81B1001EBC4
:1030D000410100EBC100006900F0080004901BE012
:1030E0000798006805999DF81B3003EB43025200D6
:1030F00003F0020302EB430291400840039007985B
:103100009DF81B1001EB410100EBC100006900F0CC
:103110001000049000E0FFE7A7E09DF80B000438E2
:103120008DF80B0005980138014600911F2800F228
:103130009A800099DFE801F01097972B97979746B0
:103140009797979797979761979797979797979745
:10315000979797979797977C0798406805999DF858
:103160000B3003EB4302520003F0020302EB430275
:1031700091400840039007989DF81B1001EB410116
:1031800000EBC100406A00F0800004906CE00798FA
:10319000406805999DF80B3003EB4302520003F0A1
:1031A000020302EB430291400840039007989DF808
:1031B0001B1001EB410100EBC100006900F00200AF
:1031C000049051E00798406805999DF80B3003EB97
:1031D0004302520003F0020302EB43029140084015
:1031E000039007989DF81B1001EB410100EBC10013
:1031F000006900F00400049036E0079840680599E3
:103200009DF80B3003EB4302520003F0020302EB84
:10321000430291400840039007989DF81B1001EB72
:10322000410100EBC100006900F0080004901BE0C0
:103230000798406805999DF80B3003EB4302520054
:1032400003F0020302EB4302914008400390079809
:103250009DF81B1001EB410100EBC100006900F07B
:103260001000049000E0FFE7FFE7039838B1FFE7A4
:10327000049820B1FFE701208DF8230003E000202F
:103280008DF82300FFE79DF8230009B0704700BFC9
:1032900083B002908DF8071000929DF80700032874
:1032A00011DCFFE700989DF8072002EB420149007E
:1032B00002F0020201EB420100FA01F20299886871
:1032C0001043886015E09DF8070004388DF807006A
:1032D00000989DF8072002EB4201490002F002022B
:1032E00001EB420100FA01F20299C8681043C8607C
:1032F000FFE703B0704700BF81B00090009810B99D
:10330000FFE7FFE7FEE700990020086000994FF40F
:103310000030486000990120886001B0704700BF0C
:1033200083B08DF80B000191019810B9FFE7FFE71A
:10333000FEE79DF80B2040F60001C4F2020151F8AF
:10334000220020F4813041F822009DF80B0051F852
:103350002000009000986FF35C400090019B1A6879
:1033600058689B6810430022CFF6F87202EBC34204
:103370003FFA82F2024300981043009000989DF8B3
:103380000B2041F8220003B0704700BF00BF00BF10
:1033900081B08DF803009DF8032040F60001C4F2CF
:1033A000020151F8220040F4803041F8220001B0BF
:1033B000704700BF00BF00BF81B08DF803009DF8CB
:1033C000032040F60001C4F2020151F8220020F46B
:1033D000803041F8220001B0704700BF00BF00BF3D
:1033E00081B08DF803009DF8032040F60001C4F27F
:1033F000020151F8220040F4007041F8220001B0AF
:10340000704700BF00BF00BF81B08DF803009DF87A
:10341000032040F60001C4F2020151F8220020F41A
:10342000007041F8220001B0704700BF00BF00BF2C
:1034300081B00090009810B9FFE7FFE7FEE7009920
:103440000020086000994FF4003048600099012086
:10345000886001B0704700BF83B08DF80B00019108
:10346000019810B9FFE7FFE7FEE79DF80B2040F653
:103470000011C4F2020151F8220020F4803041F81A
:1034800022009DF80B0051F82000009000984FF6A4
:10349000C072CFF601721040009001980368426834
:1034A000D0F808C00020CFF6F87000EBCC403FFA0F
:1034B00080F01843024300981043009000989DF854
:1034C0000B2041F8220003B0704700BF00BF00BFCF
:1034D00081B08DF803009DF8032040F60011C4F27E
:1034E000020151F8220040F4803041F8220001B07E
:1034F000704700BF00BF00BF81B08DF803009DF88A
:10350000032040F60011C4F2020151F8220020F419
:10351000803041F8220001B0704700BF00BF00BFFB
:1035200082B08DF8070000919DF8072040F6000159
:10353000C4F2020151F8220020F4C02041F8220018
:10354000009B9DF8072051F82200184341F8220003
:1035500002B0704700BF00BF82B08DF80700009135
:103560009DF8072040F60001C4F2020151F8220044
:1035700020F4780041F82200009A0020CFF6F8707D
:1035800000EBC2439DF8072051F82200184341F890
:10359000220002B0704700BF82B08DF80700009192
:1035A0009DF8072040F60001C4F2020151F8220004
:1035B00020F0F85041F82200009B9DF8072051F8B8
:1035C0002200184341F8220002B0704700BF00BF3C
:1035D00082B08DF8070000919DF8072040F60001A9
:1035E000C4F2020151F8220020F0FF0041F822004D
:1035F000009B9DF8072051F82200184341F8220053
:1036000002B0704700BF00BF82B08DF80700009184
:103610009DF8072040F60011C4F2020151F8220083
:1036200020F4C02041F82200009B9DF8072051F8AB
:103630002200184341F8220002B0704700BF00BFCB
:1036400082B08DF8070000919DF8072040F6001128
:10365000C4F2020151F8220020F4780041F822005F
:10366000009A0020CFF6F87000EBC2439DF80720C7
:1036700051F82200184341F8220002B0704700BF01
:1036800082B08DF8070000919DF8072040F60011E8
:10369000C4F2020151F8220020F03F0041F822005C
:1036A000009B9DF8072051F82200184341F82200A2
:1036B00002B0704700BF00BF81B0ADF80200BDF896
:1036C0000200800940F60001C4F202014058BDF832
:1036D000021001F01F01C840C00720B1FFE7012020
:1036E0008DF8010003E000208DF80100FFE79DF850
:1036F000010001B0704700BF81B0ADF80200BDF815
:10370000021001F01F0201209040890940F60402D6
:10371000C4F20202885001B0704700BF00BF00BF72
:1037200081B0ADF80200BDF8020000F01F020121D7
:1037300001FA02F3810940F60002C4F2020288583D
:103740001843885001B0704781B0ADF80200BDF851
:10375000020000F01F02012101FA02F3810940F684
:103760000002C4F2020288589843885001B07047A2
:1037700084B003900020019000900398800D40F6E3
:103780000002C4F2020280580399C1F304430121EC
:1037900001FA03F318400190BDF80C00800980582D
:1037A000039A02F01F02914008400090009838B13F
:1037B000FFE7019820B1FFE701208DF80B0003E03F
:1037C00000208DF80B00FFE79DF80B0004B0704758
:1037D00081B00090009901F01F020120904089B251
:1037E000890940F60402C4F20202885001B0704711
:1037F0004FF0B041002008600421C5F600010860C8
:103800000821C5F6000108600C21C5F6000108601A
:103810001021C5F6000108601821C5F600010860F6
:103820001C21C5F6000108602021C5F600010860D2
:103830002421C5F6000108602821C5F600010860B2
:10384000704700BF00BF00BF83B0ADF80A008DF81D
:1038500009108DF80820BDF80A0000F01F020121B0
:1038600001FA02FC020A4FF0B043D05820EA0C00E3
:10387000D050BDF80A0000F01F0201FA02FC020A53
:103880000423C5F60003D05820EA0C00D050BDF840
:103890000A0000F01F0201FA02FC020A0823C5F622
:1038A0000003D05820EA0C00D050BDF80A0000F008
:1038B0001F0201FA02F3010A0C22C5F60002885821
:1038C000984388509DF809000146019120B1FFE717
:1038D000019801280ED01CE0BDF80A0000F01F027C
:1038E000012101FA02F3010A4FF0B042885818434F
:1038F00088500FE0BDF80A0000F01F02012101FA14
:1039000002F3010A0422C5F60002885818438850C1
:1039100000E0FFE79DF808000146009103285CD80D
:103920000099DFE801F0021F3C59BDF80A0000F0E1
:103930001F02012101FA02FC020A0823C5F6000356
:10394000D05840EA0C00D050BDF80A0000F01F0229
:1039500001FA02F3010A0C22C5F6000288589843C6
:1039600088503BE0BDF80A0000F01F02012101FA77
:1039700002FC020A0823C5F60003D05820EA0C0016
:10398000D050BDF80A0000F01F0201FA02F3010A4C
:103990000C22C5F600028858184388501EE0BDF876
:1039A0000A0000F01F02012101FA02FC020A0823AA
:1039B000C5F60003D05840EA0C00D050BDF80A000C
:1039C00000F01F0201FA02F3010A0C22C5F6000200
:1039D00088581843885001E0FFE7FFE703B07047BD
:1039E00081B0ADF80200BDF8020000F01F02012115
:1039F00001FA02F3010A4FF0B04288581843885088
:103A000001B0704700BF00BF81B0ADF80200BDF843
:103A1000020000F01F02012101FA02F3010A4FF037
:103A2000B04288589843885001B0704700BF00BF2B
:103A300081B0ADF80200BDF8020000F01F020121C4
:103A400001FA02F3010A0422C5F60002885818435D
:103A5000885001B0704700BF81B0ADF80200BDF8DA
:103A6000020000F01F02012101FA02F3010A042200
:103A7000C5F6000288589843885001B0704700BFCF
:103A800081B0ADF80200BDF8020000F01F02012174
:103A900001FA02F3010A1022C5F600028858184301
:103AA000885001B0704700BF81B0ADF80200BDF88A
:103AB000020000F01F02012101FA02F3010A1022A4
:103AC000C5F6000288589843885001B0704700BF7F
:103AD00081B0ADF800009DF801001421C5F6000189
:103AE0004058BDF8001001F01F01C840C00720B1C8
:103AF000FFE701208DF8030003E000208DF80300AC
:103B0000FFE79DF8030001B0704700BF00BF00BF92
:103B100081B0ADF80200BDF8021001F01F020120D3
:103B20009040090A1422C5F60002885001B070477F
:103B300081B0ADF800009DF801001421C5F6000128
:103B40004058BDF8001001F01F01C840C00720B167
:103B5000FFE701208DF8030003E000208DF803004B
:103B6000FFE79DF8030001B0704700BF00BF00BF32
:103B700081B0ADF80200BDF8021001F01F02012073
:103B80009040090A1422C5F60002885001B070471F
:103B900080B58CB00B900B980A900021C5F60201FD
:103BA000884248D0FFE70A9840F20041C5F602017A
:103BB000884249D0FFE70A9840F60001C5F60201A5
:103BC00088424AD0FFE70A9840F60041C5F6020154
:103BD00088424BD0FFE70A9841F20001C5F6020186
:103BE00088424CD0FFE70A9841F20041C5F6020135
:103BF00088424DD0FFE70A9841F60001C5F6020160
:103C000088424ED0FFE70A9841F60041C5F602010E
:103C100088424FD0FFE70A9842F20041C5F6020100
:103C2000884250D0FFE70A9842F60001C5F602012B
:103C3000884251D059E04FF4E060099000F080FCD8
:103C4000099800F091FC51E040F20170089000F0FA
:103C500077FC089800F088FC48E040F2027007907A
:103C600000F06EFC079800F07FFC3FE040F203702C
:103C7000069000F065FC069800F076FC36E040F215
:103C80000470059000F05CFC059800F06DFC2DE0E0
:103C900040F20570049000F053FC049800F064FCBE
:103CA00024E040F20670039000F04AFC039800F014
:103CB0005BFC1BE040F20770029000F041FC0298B0
:103CC00000F052FC12E04FF4E160019000F038FC8B
:103CD000019800F049FC09E040F20970009000F002
:103CE0002FFC009800F040FC00E0FFE70CB080BD26
:103CF00087B006900591049203930698006801909E
:103D00000698C06800900020ADF80A00FFE7BDF8F3
:103D10000A000F2832D8FFE7BDF80A100398C84000
:103D2000C00720B3FFE7BDF80A004100032000FAF6
:103D300001F20199914301910599BDF80A205200C1
:103D400001FA02F2019911430191BDF80A104900EC
:103D500000FA01F10098884300900498BDF80A1019
:103D6000490000FA01F1009808430090FFE7FFE7DF
:103D7000BDF80A000130ADF80A00C8E701980699BD
:103D8000086000980699C86007B0704700BF00BF80
:103D900086B005908DF81310039202939DF81300DE
:103DA000012806D1FFE7029A059948681043486048
:103DB00005E0029A0599486890434860FFE7059836
:103DC000806800900020ADF80600FFE7BDF806000F
:103DD0000F2821D8FFE7BDF806100298C840C00799
:103DE00098B1FFE7BDF806004100032000FA01F199
:103DF0000098884300900398BDF80610490000FA27
:103E000001F1009808430090FFE7FFE7BDF80600C6
:103E10000130ADF80600D9E700980599886006B032
:103E2000704700BF00BF00BF82B0019000910098B2
:103E30000199886102B0704782B0019000910098AA
:103E40000199886202B0704783B0029001918DF8A9
:103E500003209DF8030020B1FFE7019802998861D3
:103E600003E0019802998862FFE703B0704700BF42
:103E700082B00190ADF80210BDF8020001994861CE
:103E800002B0704700BF00BF87B006908DF81710D2
:103E9000049203930698006B01909DF80C0050B1BA
:103EA000FFE7019820F0FF0001909DF8171001989E
:103EB00008430190FFE79DF80D0058B1FFE7019816
:103EC00020F47F4001909DF81710019840EA0120EE
:103ED0000190FFE70198069908630698406B0090EF
:103EE0000020ADF80A00FFE7BDF80A000F2821D82E
:103EF000FFE7BDF80A100398C840C00798B1FFE774
:103F0000BDF80A004100032000FA01F1009888433F
:103F100000900498BDF80A10490000FA01F10098D9
:103F200008430090FFE7FFE7BDF80A000130ADF855
:103F30000A00D9E700980699486307B0704700BFA8
:103F400083B001900091019800690099084204D063
:103F5000FFE701208DF80B0003E000208DF80B0037
:103F6000FFE79DF80B0003B0704700BF00BF00BF24
:103F700081B000900098006980B201B0704700BF26
:103F800083B001900091019840690099084204D0E3
:103F9000FFE701208DF80B0003E000208DF80B00F7
:103FA000FFE79DF80B0003B0704700BF00BF00BFE4
:103FB00081B000900098406980B201B0704700BFA6
:103FC00086B00590049103920598006A01900598C7
:103FD000406A00900020ADF80A00FFE7BDF80A0033
:103FE000072821D8FFE7BDF80A100398C840C0078A
:103FF00098B1FFE7BDF80A0081000F2000FA01F137
:104000000198884301900498BDF80A10890000FACD
:1040100001F1019808430190FFE7FFE7BDF80A00AE
:104020000130ADF80A00D9E70820ADF80A00FFE733
:10403000BDF80A000F2825D8FFE7BDF80A1003983D
:10404000C840C007B8B1FFE7BDF80A006FF01F0114
:1040500001EB80020F2000FA02F2009890430090DA
:104060000498BDF80A2001EB820100FA01F10098E2
:1040700008430090FFE7FFE7BDF80A000130ADF804
:104080000A00D5E7019805990862009805994862E9
:1040900006B0704700BF00BF83B0029001914FF49B
:1040A0008030009001990098084300900098029990
:1040B000C86101980299C86100980299C861029884
:1040C000C06900900298C069009003B0704700BFBB
:1040D00082B00190009100980199C86202B07047C7
:1040E00081B0009000994FF6FF70C86201B0704730
:1040F00081B0009000980021C0F2FA5108434EF6BA
:104100000C51CEF20001086001B0704700BF00BF43
:1041100080B586B08DF817008DF816108DF8152033
:1041200000200490039002904EF60C50CEF2000056
:10413000006800F4E06001460191B0F5407F27D0AF
:10414000FFE70198B0F5806F1DD0FFE70198B0F54B
:10415000A06F14D0FFE70198B0F5C06F0AD0FFE759
:104160000198B0F5E06F18D1FFE70020039004201C
:1041700002901AE0012003900320029015E0022033
:104180000390029011E003200390012002900CE0C4
:10419000042003900020029007E04FF4A060FFF796
:1041A000A7FF022003900290FFE79DF816000399F5
:1041B000C1F10401884004909DF815000299C1F1F5
:1041C00004020F21D1400140049808430490049850
:1041D0000001049004989DF817104EF20042CEF2B0
:1041E000000288549DF8172002F01F01012088402A
:1041F0001C2101EAD2014EF20012CEF200028850D8
:1042000006B080BD00BF00BF81B08DF803009DF8EF
:10421000032002F01F01012088401C2101EAD20185
:104220004EF28012CEF200028850BFF34F8FBFF3E0
:104230006F8F01B0704700BF82B00190009101986C
:1042400000994FF68072C1F6FF72114008434EF696
:104250000851CEF200010860BFF34F8F02B07047E3
:1042600081B08DF803009DF803204EF61051CEF278
:10427000000108681043086001B0704700BF00BF2C
:1042800081B08DF803009DF803204EF61051CEF258
:10429000000108689043086001B0704700BF00BF8C
:1042A00081B000900098042809D1FFE74EF2100178
:1042B000CEF20001086840F00400086008E04EF209
:1042C0001001CEF20001086820F004000860FFE74A
:1042D00001B0704700BF00BF81B00090009900207E
:1042E0000871009908600099087300990872009994
:1042F000C871009A01215172009A9172009AD1728C
:104300000099887100990420487101B0704700BF7E
:1043100080B581B00090009800794EF69851CEF2A9
:1043200000010860009800684EF69C51CEF2000132
:104330000860009B187B000759799A7993F807C0A9
:1043400093F808E040EA0E6040EACC4093F809C0D8
:1043500040EA8C4093F80AC040EA4C40DB7A40EADD
:10436000034040EA022040EA41004EF6A051CEF25E
:104370000001086001B080BD4EF6A051CEF20001F0
:10438000086840F00100086070470000000000006D
:1043900044F20041C5F60201086840F08040086020
:1043A000FFE744F20040C5F602000068C00F08B9FC
:1043B000FFE7F6E744F20841C5F60201086820F07D
:1043C00003000860086840F20C32C0F2C0021040DE
:1043D000086044F20041C5F6020108684FF6FF721A
:1043E000CEF6F62210400860086820F480200860AD
:1043F00044F20441C5F6020142F22000C0F200106E
:10440000086044F28441C5F6020142F22000C0F285
:104410000110086044F28841C5F60201086044F2C8
:104420009841C5F602010020086044F29C41C5F69F
:104430000201086044F2A041C5F60201086044F29E
:10444000A441C5F60201086044F20C42C5F602021E
:104450000021C1F2FF41116044F2CC42C5F60202D4
:104460004FF4E001116044F28C41C5F6020108608E
:1044700044F29041C5F60201086044F29441C5F649
:104480000201086044F2D041C5F60201086044F21E
:10449000F041C5F602010860704700BF00BF00BFD1
:1044A00081B0ADF80200BDF8020000F01F0201214A
:1044B00001FA02F3810944F20042C5F6020288586B
:1044C0001843885001B0704781B0ADF80200BDF8C4
:1044D000020000F01F02012101FA02F3810944F2F7
:1044E0000042C5F6020288589843885001B07047D0
:1044F00081B0ADF80200BDF8020000F01F020121FA
:1045000001FA02F3810944F20042C5F6020288581A
:104510001843885001B0704781B0ADF80200BDF873
:10452000020000F01F02012101FA02F3810944F2A6
:104530000042C5F6020288589843885001B070477F
:1045400081B0ADF80200BDF8020000F01F020121A9
:1045500001FA02F3810944F20042C5F602028858CA
:104560001843885001B0704781B0ADF80200BDF823
:10457000020000F01F02012101FA02F3810944F256
:104580000042C5F6020288589843885001B070472F
:1045900044F27041C5F60201086840F480300860BA
:1045A000704700BF00BF00BF44F27041C5F6020172
:1045B000086820F480300860704700BF00BF00BF6B
:1045C00082B0019044F20841C5F6020108680090EB
:1045D000009820F0030000900098019A10430860B2
:1045E00002B0704700BF00BF44F20840C5F60200A9
:1045F000006800F00C00704782B0019044F208415E
:10460000C5F6020108680090009820F0F0000090C4
:104610000098019A1043086002B0704700BF00BFC5
:1046200082B0019044F20841C5F60201086800908A
:10463000009820F4E05000900098019A1043086020
:1046400002B0704700BF00BF82B0019044F2084141
:10465000C5F6020108680090009820F460400090C0
:104660000098019A1043086002B0704700BF00BF75
:1046700082B0019044F20841C5F60201086800903A
:10468000009820F0605000900098019A1043086054
:1046900002B0704700BF00BF82B0019044F20841F1
:1046A000C5F6020108680090009820F0E0600090D4
:1046B0000098019A1043086002B0704700BF00BF25
:1046C00083B00290019144F29041C5F6020108685E
:1046D0000090009820F07F0000900098029A10430C
:1046E000019A1043086003B0704700BF00BF00BFCD
:1046F00083B00290019144F29041C5F6020108682E
:104700000090009820F4FE4000900098029A104318
:10471000019A1043086003B0704700BF00BF00BF9C
:1047200084B08DF80F00029101929DF80F000146B0
:10473000009140B1FFE70098012813D0FFE70098EF
:1047400002281ED02CE044F29841C5F60201086808
:1047500020F0070008600298019A0243086810439D
:1047600008601EE044F29841C5F60201086820F096
:10477000700008600298019A0243086810430860BC
:104780000FE044F29841C5F60201086820F4E060A9
:1047900008600298019A024308681043086000E02C
:1047A000FFE704B0704700BF83B08DF80B000191A4
:1047B0009DF80B000146009140B1FFE700980128E9
:1047C00012D0FFE7009802281CD029E044F29C4157
:1047D000C5F60201086841F6FF7290430860019A2D
:1047E0000868104308601CE044F2A041C5F60201CD
:1047F000086841F6FF7290430860019A0868104308
:1048000008600EE044F2A441C5F60201086841F6D2
:10481000FF7290430860019A08681043086000E046
:10482000FFE703B0704700BF82B08DF807009DF826
:1048300007000146009140B1FFE7009801280DD024
:10484000FFE70098022812D01AE044F29C41C5F616
:104850000201086840F40040086012E044F2A04100
:10486000C5F60201086840F40040086009E044F21F
:10487000A441C5F60201086840F40040086000E069
:10488000FFE702B0704700BF82B08DF807009DF8C7
:1048900007000146009140B1FFE7009801280DD0C4
:1048A000FFE70098022812D01AE044F29C41C5F6B6
:1048B0000201086820F40040086012E044F2A041C0
:1048C000C5F60201086820F40040086009E044F2DF
:1048D000A441C5F60201086820F40040086000E029
:1048E000FFE702B0704700BF81B0009044F29841EA
:1048F000C5F60201086820F440300860009A086894
:104900001043086001B0704785B0DDF814C0039013
:104910000291019200930398002851D0FFE7039879
:104920003F284DD8FFE70298092849D3FFE70298AE
:10493000B0F5007F44D8FFE70198002840D0FFE79A
:10494000019880283CD8FFE70098C8B3FFE700989B
:10495000802835D8FFE7059890B3FFE705988028B1
:104960002ED8FFE744F20441C5F60201086848F278
:104970000002C8F28002104008600398029B6FF0AA
:104980003F0202EB83121043019B0022CFF6FF721D
:1049900002EB03421043059A013A40EA02620868BA
:1049A0001043086044F28041C5F60201086820F017
:1049B0007F0008600098421E08681043086003E00A
:1049C00000208DF8130003E001208DF81300FFE7AD
:1049D0009DF8130005B0704785B0DDF814C0039052
:1049E000029101920093039800284AD0FFE70398B0
:1049F0003F2846D8FFE70298092842D3FFE70298EC
:104A0000B0F5007F3DD8FFE70198D0B3FFE70198EC
:104A1000802836D8FFE7009898B3FFE700988028F1
:104A20002FD8FFE7059860B3FFE70598802828D8BE
:104A3000FFE70398029A6FF03F0101EB82110843F0
:104A4000019A0021CFF6FF7101EB0241084305995D
:104A5000013940EA016044F28441C5F60201086070
:104A600044F28041C5F60201086820F4FE40086067
:104A7000009A6FF0FF0000EB022208681043086004
:104A800003E000208DF8130003E001208DF81300EF
:104A9000FFE79DF8130005B0704700BF00BF00BFDF
:104AA00085B0DDF814C00390029101920093039841
:104AB000002848D0FFE703983F2844D8FFE7029832
:104AC000092840D3FFE70298B0F5007F3BD8FFE705
:104AD0000198C0B3FFE70198802834D8FFE7009819
:104AE00088B3FFE7009880282DD8FFE7059850B3DA
:104AF000FFE70598802826D8FFE70398029A6FF011
:104B00003F0101EB82110143019A0020CFF6FF70B3
:104B100000EB02421143059A013A41EA026144F274
:104B20008842C5F60202116044F28041C5F60201D6
:104B30000A6822F4FE020A60009A00EB024208684A
:104B40001043086003E000208DF8130003E001200B
:104B50008DF81300FFE79DF8130005B0704700BF04
:104B600081B00090009A44F28041C5F602010868C5
:104B70001043086001B0704781B00090009A44F281
:104B80008041C5F6020108689043086001B0704793
:104B900084B0039002910192009344F2D441C5F68F
:104BA0000201086820F008000860039A08681043B2
:104BB000086044F2D841C5F60201086847F67F72E2
:104BC000904308600298009A1043019A02430868D3
:104BD0001043086004B0704784B0039002910192C2
:104BE000009344F2D441C5F60201086820F4006045
:104BF0000860039A086840EA0220086044F2D8413D
:104C0000C5F6020108684FF6FF72C8F28002104034
:104C100008600298009A019B18430243086840EA22
:104C20000240086004B0704782B0019044F27041C5
:104C3000C5F6020108680090009820F440700090CA
:104C40000098019A1043086002B0704700BF00BF8F
:104C500082B0019044F20841C5F602010868009054
:104C6000009820F47C1000900098019A104308608E
:104C700002B0704700BF00BF82B0019044F2C04153
:104C8000C5F6020108680090009820F0010000902D
:104C90000098019A1043086002B0704700BF00BF3F
:104CA00082B0019044F2C041C5F60201086800904C
:104CB000009820F0020000900098019A10430860CC
:104CC00002B0704700BF00BF82B0019044F2C441FF
:104CD000C5F6020108680090009820F4403000906A
:104CE0000098019A1043086002B0704700BF00BFEF
:104CF00081B00020009044F2C440C5F60200006874
:104D000010F4403F06D1FFE749F20000C0F2D03076
:104D1000009036E044F2C440C5F60200006800F49A
:104D20004030B0F5803F06D1FFE744F60000C0F206
:104D3000E810009024E044F2C440C5F60200006888
:104D400000F44030B0F5003F06D1FFE742F20040EA
:104D5000C0F2F400009012E044F2C440C5F6020034
:104D6000006800F44030B0F5403F06D1FFE741F263
:104D70000020C0F27A00009000E0FFE7FFE7FFE7C5
:104D8000FFE7009801B0704781B0009000986FF085
:104D90008071884209D1FFE7009A44F28C41C5F640
:104DA000020108681040086008E0009A44F28C4153
:104DB000C5F60201086810430860FFE701B07047BC
:104DC00083B08DF80B0001919DF80B000146009116
:104DD000052857D80099DFE801F003101E2C394749
:104DE00044F2F041C5F60201086820F007000860AF
:104DF000019A08681043086045E044F2F041C5F6A6
:104E00000201086820F070000860019A086840EA12
:104E10000210086037E044F2F041C5F6020108686C
:104E200020F4E0600860019A086840EA0220086007
:104E300029E044F2F041C5F60201086820F4E040A0
:104E40000860019A0868104308601CE044F2F041D1
:104E5000C5F60201086820F4E0200860019A08689D
:104E600040EA021008600EE044F2F041C5F602018B
:104E7000086820F4E0000860019A086840EA02200F
:104E8000086000E0FFE703B0704700BF00BF00BF4D
:104E900083B08DF80B0001919DF80B000146009145
:104EA00020B1FFE7009801280DD019E044F2D0416D
:104EB000C5F60201086820F001000860019A086840
:104EC000104308600DE044F29441C5F60201086801
:104ED00020F480500860019A08681043086000E0E0
:104EE000FFE703B0704700BF81B0009044F29441E7
:104EF000C5F60201086820F080700860009A086812
:104F00001043086001B0704782B0019044F28C41B8
:104F1000C5F6020108680090009820F44030009027
:104F20000098019A1043086002B0704700BF00BFAC
:104F300083B08DF80B0001919DF80B0001460091A4
:104F400003283BD80099DFE801F0020F1D2B44F243
:104F50008C41C5F60201086820F003000860019A40
:104F60000868104308602AE044F28C41C5F602014B
:104F7000086820F440200860019A086840EA8240EE
:104F800008601CE044F28C41C5F60201086820F478
:104F900040100860019A086840EA025008600EE07C
:104FA00044F28C41C5F60201086820F44000086014
:104FB000019A086840EA8250086000E0FFE703B009
:104FC000704700BF00BF00BF83B08DF80B00019198
:104FD0009DF80B000146009103283BD80099DFE8BB
:104FE00001F002101D2B44F20841C5F602010868C9
:104FF00020F040400860019A086840EA827008602A
:1050000029E044F29441C5F60201086820F003004B
:105010000860019A0868104308601CE044F294415B
:10502000C5F60201086820F00C000860019A0868C3
:1050300040EA820008600EE044F29441C5F60201A5
:10504000086820F030000860019A086840EA021001
:10505000086000E0FFE703B0704700BF00BF00BF7B
:1050600083B08DF80B0001919DF80B000146009173
:1050700040B1FFE70098012811D0FFE7009802280F
:105080001BD028E044F28C41C5F60201086820F4E8
:1050900040700860019A0868104308601CE044F200
:1050A0008C41C5F60201086820F440600860019A4E
:1050B000086840EA820008600EE044F28C41C5F6C0
:1050C0000201086820F440500860019A086840EA2C
:1050D0000210086000E0FFE703B0704700BF00BFA8
:1050E00083B08DF80B0001919DF80B0001460091F3
:1050F000022804D3FFE7009802280DD01AE044F2FA
:105100009441C5F60201086820F040600860019AE9
:105110000868104308600EE044F29441C5F60201AD
:10512000086820F040500860019A086840EA820050
:10513000086000E0FFE703B0704700BF00BF00BF9A
:1051400083B08DF80B0001919DF80B000146009192
:1051500020B1FFE7009801280DD01AE044F29041F9
:10516000C5F60201086820F4E0200860019A08688A
:10517000104308600EE044F29041C5F60201086851
:1051800020F4E0000860019A086840EA0210086014
:1051900000E0FFE703B0704783B08DF80B0001918A
:1051A0009DF80B000146009120B1FFE7009801280F
:1051B0000DD01AE044F29041C5F60201086820F0D3
:1051C000E0600860019A0868104308600EE044F24D
:1051D0009041C5F60201086820F0E0400860019A9D
:1051E000086840EA0210086000E0FFE703B070477B
:1051F00081B0009044F28C41C5F60201086820F0AD
:1052000030000860009A08681043086001B07047D9
:1052100081B0009044F2D041C5F60201086820F444
:1052200040700860009A08681043086001B0704739
:1052300081B0009044F28C41C5F60201086820F06C
:1052400000400860009A08681043086001B0704789
:1052500081B0009044F28C41C5F60201086820F448
:1052600040400860009A08681043086001B0704729
:1052700083B08DF80B0001919DF80B000146009161
:1052800020B1FFE7009801280DD01AE044F2D44184
:10529000C5F60201086820F4E0200860019A086859
:1052A000104308600EE044F2D441C5F602010868DC
:1052B00020F460100860019A086840EAC2000860A3
:1052C00000E0FFE703B0704783B08DF80B00019159
:1052D0009DF80B000146009120B1FFE700980128DE
:1052E0000DD01AE044F2D441C5F60201086820F05E
:1052F00060000860019A0868104308600EE044F2FC
:10530000D441C5F60201086820F4C0400860019A43
:10531000086840EA0220086000E0FFE703B0704739
:1053200083B08DF80B0001919DF80B0001460091B0
:1053300020B1FFE7009801280DD01AE044F2D441D3
:10534000C5F60201086820F002000860019A0868AA
:10535000104308600EE044F2D441C5F6020108682B
:1053600020F400700860019A086840EA0220086092
:1053700000E0FFE703B0704782B08DF807009DF8AA
:1053800007000146009120B1FFE70098012809D0ED
:1053900011E044F2D441C5F60201086840F0100063
:1053A000086009E044F2D441C5F60201086840F4FF
:1053B0008050086000E0FFE702B0704700BF00BF08
:1053C00082B08DF807009DF807000146009120B1DA
:1053D000FFE70098012809D011E044F2D441C5F656
:1053E0000201086820F01000086009E044F2D4418E
:1053F000C5F60201086820F48050086000E0FFE76D
:1054000002B0704700BF00BF82B0019044F270410B
:10541000C5F6020108680090009820F0180000907E
:105420000098019A1043086002B0704700BF00BFA7
:1054300080B590B0ADF83E0000200E908DF837009A
:105440008DF83600BDF83E0001460C91102839D089
:10545000FFE70C98182800F02681FFE70C981A281F
:1054600000F04981FFE70C981C2800F06C81FFE7F1
:105470000C981E2874D0FFE70C98B0F5E05F47D079
:10548000FFE70C98B0F5E85F00F0B980FFE70C98F3
:1054900043F21001884200F08880FFE70C98B0F5D5
:1054A000445F00F0D680FFE70C9843F21C1188425D
:1054B00000F07181FFE70C9843F21E11884200F062
:1054C0009481BCE1FFE79DF8361000200B9041B9B4
:1054D000FFE70E984FF6FF71401A18BF01200B909E
:1054E000FFE70B98C00748B1FFE7112000F0ACF9C7
:1054F0008DF836000E9801300E90E4E7112000F090
:10550000A3F920B1FFE701208DF83700FFE797E10D
:10551000FFE79DF8361000200A9041B9FFE70E988A
:105520006FF07041401A18BF01200A90FFE70A98F7
:10553000C00750B1FFE741F6014000F085F98DF852
:1055400036000E9801300E90E3E741F6014000F07E
:105550007BF920B1FFE701208DF83700FFE76FE10D
:10556000FFE79DF836100020099039B9FFE70E9843
:10557000B0F5A06018BF01200990FFE70998C007A7
:1055800048B1FFE71F2000F05FF98DF836000E9854
:1055900001300E90E5E71F2000F056F920B1FFE73B
:1055A00001208DF83700FFE74AE1FFE79DF836104C
:1055B0000020089051B9FFE70E984FF6FF71C0F236
:1055C0000F01401A18BF01200890FFE70898C00794
:1055D00050B1FFE743F2110000F036F98DF83600C4
:1055E0000E9801300E90E1E743F2110000F02CF923
:1055F00020B1FFE701208DF83700FFE720E1FFE74A
:105600009DF836100020079051B9FFE70E984FF62D
:10561000FF71C0F20F01401A18BF01200790FFE789
:105620000798C00750B1FFE741F6015000F00CF9B0
:105630008DF836000E9801300E90E1E741F60150EA
:1056400000F002F920B1FFE701208DF83700FFE7F5
:10565000F6E0FFE79DF836100020069051B9FFE70D
:105660000E984FF6FF71C0F20F01401A18BF0120CB
:105670000690FFE70698C00750B1FFE743F201101C
:1056800000F0E2F88DF836000E9801300E90E1E758
:1056900043F2011000F0D8F820B1FFE701208DF8A7
:1056A0003700FFE7CCE0FFE79DF8361000200590BB
:1056B00051B9FFE70E984FF6FF71C0F20F01401A83
:1056C00018BF01200590FFE70598C00748B1FFE724
:1056D000192000F0B9F88DF836000E9801300E90C0
:1056E000E2E7192000F0B0F820B1FFE701208DF8C3
:1056F0003700FFE7A4E0FFE79DF836100020049094
:1057000051B9FFE70E984FF6FF71C0F20F01401A32
:1057100018BF01200490FFE70498C00748B1FFE7D5
:105720001B2000F091F88DF836000E9801300E9095
:10573000E2E71B2000F088F820B1FFE701208DF898
:105740003700FFE77CE0FFE79DF83610002003906C
:1057500051B9FFE70E984FF6FF71C0F20F01401AE2
:1057600018BF01200390FFE70398C00748B1FFE787
:105770001D2000F069F88DF836000E9801300E906B
:10578000E2E71D2000F060F820B1FFE701208DF86E
:105790003700FFE754E0FFE79DF836100020029045
:1057A00051B9FFE70E984FF6FF71C0F20F01401A92
:1057B00018BF01200290FFE70298C00750B1FFE731
:1057C00043F21D1000F040F88DF836000E980130BD
:1057D0000E90E1E743F21D1000F036F820B1FFE72C
:1057E00001208DF83700FFE72AE0FFE79DF836102B
:1057F0000020019051B9FFE70E984FF6FF71C0F2FB
:105800000F01401A18BF01200190FFE70198C0075F
:1058100050B1FFE743F21F1000F016F88DF8360084
:105820000E9801300E90E1E743F21F1000F00CF8E3
:1058300020B1FFE701208DF83700FFE700E0FFE728
:105840009DF8370010B080BD81B0ADF80000BDF804
:105850000000800944F20041C5F602014058BDF83D
:10586000001001F01F01C840C00720B1FFE7012070
:105870008DF8030003E000208DF80300FFE79DF89A
:10588000030001B0704700BF81B0ADF80200BDF861
:10589000020000F01F02012101FA02F3810944F223
:1058A0000042C5F6020288581843885001B070477C
:1058B00081B0ADF80200BDF8020000F01F02012126
:1058C00001FA02F3810944F20042C5F60202885847
:1058D0009843885001B0704783B0ADF80A00BDF816
:1058E0000A0001460091102805D0FFE70098B0F5A6
:1058F000E05F0FD01DE044F20041C5F602010868E8
:105900000190086820F480300860019840F48020FD
:1059100008600FE044F27041C5F60201086801908A
:10592000086820F001000860019840F00400086059
:1059300000E0FFE703B0704783B0ADF80A00BDF8A0
:105940000A0001460091102805D0FFE70098B0F545
:10595000E05F0FD01DE044F20041C5F60201086887
:105960000190086820F480300860019820F48020BD
:1059700008600FE044F27041C5F60201086801902A
:10598000086820F001000860019820F00400086019
:1059900000E0FFE703B0704782B0019044F200419D
:1059A000C5F6020108680090009820F07F00009082
:1059B0000098019A02F07F021043086002B070471D
:1059C00082B0019044F2C441C5F60201086800901B
:1059D000009820F0FC0000900098019A02F03F022D
:1059E00040EA8200086002B0704700BF00BF00BFFD
:1059F00044F20041C5F60201086840F40020086046
:105A0000704700BF00BF00BF44F20041C5F602016D
:105A1000086820F400200860704700BF00BF00BF86
:105A200044F27041C5F60201086840F020000860A9
:105A3000704700BF00BF00BF44F27041C5F60201CD
:105A4000086820F020000860704700BF00BF00BF5A
:105A500080B5BAB08DF8E7000020029037903690FC
:105A60003590109040F20671C0F608110F9140F287
:105A70000121C0F203410E910D900C900B910A9000
:105A8000099108900791069005910490FFF730F96D
:105A9000369044F20840C5F602000068C0F3810069
:105AA000389038980390032868D80399DFE801F00C
:105AB000020B05113698349063E040F60010C0F2F6
:105AC0003D0034905DE047F64000C0F27D10349018
:105AD00057E044F20441C5F60201086800F03F00B7
