:020000040800F2
:10000000D086032421350008B9030008C103000885
:10001000C9030008D1030008D9030008000000004C
:10002000000000000000000000000000E9030008DC
:10003000E103000800000000F1030008F9030008D4
:100040004D3500084D3500084D3500084D35000888
:100050004D3500084D3500084D3500084D35000878
:100060004D3500084D3500084D3500084D35000868
:100070004D3500084D3500084D3500084D35000858
:100080004D3500084D3500084D35000800000000D2
:100090000000000000000000000000004D350008D6
:1000A0004D3500084D3500084D3500084D35000828
:1000B0004D3500084D3500084D3500084D35000818
:1000C0004D3500084D3500084D3500084D35000808
:1000D0004D3500084D3500084D3500084D350008F8
:1000E0004D3500084D350008000000004D35000872
:1000F0004D3500084D3500084D3500084D350008D8
:100100004D3500084D3500084D3500084D350008C7
:100110004D3500084D3500084D3500084D350008B7
:100120004D3500084D3500084D3500084D350008A7
:100130004D3500084D3500084D3500080000000021
:1001400000000000000000000000000000000000AF
:100150004D3500084D3500084D3500084D35000877
:100160004D3500084D3500084D3500084D35000867
:100170004D3500084D3500084D3500084D35000857
:100180004D3500084D3500084D3500084D35000847
:100190004D3500084D3500084D3500084D35000837
:1001A0004D3500084D3500084D3500084D35000827
:1001B0004D35000800000000000000004D3500082B
:1001C0004D3500084D35000800000000000000001B
:1001D00000000000000000004D3500080000000095
:1001E000000000000000000000000000000000000F
:1001F00000000000000000004D3500084D350008EB
:100200004D3500084D3500084D3500080000000050
:100210004D3500084D3500084D3500080000000040
:100220004D350008000000004D35000800000000BA
:100230004D3500084D350008000000004D35000820
:1002400000000000000000000000000000000000AE
:10025000000000000000000000000000000000009E
:10026000000000004D350008000000000000000004
:10027000000000000000000000000000000000007E
:100280004D3500084D35000800000000000000005A
:1002900000000000000000004D3500084D3500084A
:1002A0004D3500084D3500084D35000800000000B0
:1002B000000000000000000000000000000000003E
:1002C000000000004D3500084D3500084D35000890
:1002D0004D3500084D3500084D3500084D350008F6
:1002E0004D3500084D3500084D3500084D350008E6
:1002F0004D3500084D3500084D3500084D350008D6
:100300004D3500084D350008000000004D3500084F
:100310004D3500084D3500084D3500084D350008B5
:100320004D3500084D3500084D3500084D350008A5
:100330004D3500084D3500084D3500084D35000895
:100340004D3500084D3500084D3500084D35000885
:100350004D3500084D3500084D3500084D35000875
:100360004D3500084D3500084D3500084D35000865
:100370004D3500084D3500084D3500084D35000855
:100380004D3500084D3500084D3500084D35000845
:100390004D3500084D3500084D3500084D35000835
:1003A0004D350008DFF80CD023F040FA0048004734
:1003B00091040008D0860324FEE700BF00BF00BF01
:1003C000FEE700BF00BF00BFFEE700BF00BF00BFE9
:1003D000FEE700BF00BF00BFFEE700BF00BF00BFD9
:1003E000FEE700BF00BF00BFFEE700BF00BF00BFC9
:1003F000FEE700BF00BF00BF80B500F03DF846F249
:10040000A460C2F2034001680131016080BD0000B8
:1004100040F20C0044F6D351C2F20040C1F2620136
:100420000068A0FB01014FF0FF3000EB9110B0F12C
:10043000807F11D24EF21001F022CEF2000107238C
:1004400048604EF62350CEF20000027000228A600F
:100450000B600270704700BFFEE700BF00BF00BF27
:1004600042F2E841C2F20041086000BF086800287B
:10047000FCD1704700BF00BF42F2E840C2F200402A
:100480000168002908BF70470168013901607047A1
:10049000F0B585B04EF61455CEF2000528688003FD
:1004A00012D4BFF34F8FBFF36F8F0020C5F83C020B
:1004B000BFF34F8FBFF36F8F286840F40030286080
:1004C000BFF34F8FBFF36F8F2868C00328D400207D
:1004D0002867BFF34F8FE96E43F6E077CA08C1F390
:1004E0004E30C1F3C9014C1C9207430103EA0701D6
:1004F000561821460139C5F84C6206F14046F9D13B
:100500000028A0F10100A3F12003EFD1BFF34F8F2A
:10051000286840F480302860BFF34F8FBFF36F8F9F
:10052000FFF776FF01AC204600F04AFEBFF35F8F75
:10053000286920F480302861D5F8800020F001007F
:10054000C5F880000020C5F88800C5F88C0001902F
:100550008DF80C000120C0F20010CDF80D0041F61E
:100560000070C0F287000290204600F039FE00F0D3
:100570005FFE0520C5F88000286946F2A86440F4B3
:100580008030286140F23405C2F20344BFF34F8F3C
:10059000C2F2004542F23C56BFF36F8F28682060DC
:1005A00042F260504FF44041C2F20040A06041F678
:1005B000A8006160C2F20040206142F230504FF466
:1005C0008051E16040F21001C2F20040C2F20046E8
:1005D000C4E906062046C2F20041616103F094F8C6
:1005E00038B101461AA023F0D7F94FF0FF3005B01B
:1005F000F0BD40F20C0040F23C01C2F20040C2F2F9
:100600000041006830600868B06041F6B000C2F296
:100610000040306141F20000C4F2010003F02CF808
:1006200000264FF07E5700BF28684FF44051043831
:10063000013940F8047FFBD1204603F079F9E069E5
:1006400000F05AF801360A2EEED100BFFEE700BFD7
:10065000696E6974206572726F723A2025640A00AF
:10066000B0B584B06C46204600F0AAFD4EF6245585
:10067000CEF20005BFF35F8F286820F48030286039
:10068000286F20F0010028670020A867E867009025
:100690008DF808000120C0F20010CDF8090041F6E5
:1006A0000070C0F287000190204600F099FD00F034
:1006B000BFFD05202867286840F480302860BFF31C
:1006C0004F8FBFF36F8F04B0B0BD00BF00BF00BF3E
:1006D000B0B541F200050446C1B2C4F20105284696
:1006E00002F006FC40F20771284602F09DFE002849
:1006F000F8D02046B0BD00002DE9F0412DED028B71
:100700008AB0044642F6306143F27600002CC0F213
:100710003001CDF82310C3F22E00089000F0B58010
:1007200044F6C230A669C0F6020023F06DFF41F620
:10073000D400C2F20040016844F62D30C0F6020039
:1007400023F02AF920684DF68361C4F21B31A0FB27
:10075000010144F64330C0F60200890C23F01CF975
:1007600020798DF82100A07961798DF8250044F673
:100770000F308DF82310C0F6020008A923F00CF901
:1007800044F6FB20A168C0F6020023F005F9A08919
:1007900044F29C61C0F6020151F8201040A023F001
:1007A000FBF8E18945A023F0F7F894ED050A9FEDE9
:1007B0004B1A80EE011A4AA0B7EEC00AB7EEC11A72
:1007C00053EC102B8DED001B23F0E6F844F683402C
:1007D000C0F6020023F018FF44F66230C0F60200B3
:1007E00023F012FF44F63F55C0F60205284623F0D9
:1007F0000BFF4BA000901220019046A00290102009
:10080000039049A04CA20C210E233FA704970E276A
:1008100023F0C2F8284623F0F7FEE08950B344F6EF
:10082000E428301F00259FED458AC0F6020800BF6E
:1008300090ED010A94ED051A80EE011A2169B7EED8
:10084000C00A061D51F825200B2121EE081A11239C
:10085000CDE9002740462A46B7EEC11A04978DED30
:10086000061B8DED020B23F097F8E08901358542D8
:100870003046DDD344F63F50C0F6020023F0C4FEFC
:1008800044F62440C0F6020003E044F6E240C0F61D
:10089000020023F0B9FE0AB0BDEC028BBDE8F08186
:1008A000546865207175616E74697A6174696F6EE0
:1008B00020747970653A2025730A00005468652019
:1008C0006D6F64656C2773206C61796572206E753D
:1008D0006D6265723A2025640A00000000007A44C7
:1008E00054686520696E666572656E63652074691B
:1008F0006D653A20252E33662075732028252E320B
:1009000066206D73292E0A0070657263656E740A25
:100910000000000074696D652875732900000000EF
:100920006E616D6500000000252A7320252A732062
:10093000252A7320252A7300696400000000C8423C
:100940004EF21000CEF20000016841F00401016097
:100950006FF07F41416000218160026842F0010236
:10096000026046F2A46000BFC2F20340016070471B
:100970004EF21801CEF200010968D8B16FF07F4243
:1009800002EE100A511A46F2A46001EE101AC2F2E9
:100990000340B8EE422AB8EE411A81EE021A90EDF9
:1009A000002AB8EE422AA0EE021A9FED050A21EEB7
:1009B000000A70479FED010A704700BF0000000069
:1009C0000024744900BF00BF4EF21000CEF20000B8
:1009D000016821F00101016046F2A460002100BF1E
:1009E000C2F203400160704780B54EF6885144F270
:1009F0000840CEF20001C5F602000A6842F4700217
:100A00000A6050F8081C41F0804140F8081C00BF03
:100A100050F8081CB1F1FF3FFADC40F2684C416C21
:100A2000C5F6000C41F0010141644FF6FF72DCF89D
:100A30000010CEF6F22221F00101CCF8001001687E
:100A40004FF0000E21F00301016050F8081C4FF632
:100A5000FE73114040F8081C4FF6FE72D0F8BC102F
:100A6000CAF6FF721140C0F8BC1040F20C320168A7
:100A7000C0F2C00211400160CC22D0F88410C7F649
:100A800000621140C0F8841048F28002D0F888104B
:100A9000C8F688021140C0F888104EF6C072D0F82F
:100AA0008C10CCF2FF321140C0F88C10D0F8C81076
:100AB00040F201329143C0F8C81048F68802D0F8DD
:100AC000E810CFF688721140C0F8E8100021C1F29A
:100AD000FF4141604FF4E001C0F8C41042F2200130
:100AE000C0F20111A1F5803240F8042CC167C0F8B2
:100AF000801040F20111C0F890E0C0F2010181675E
:100B0000C0F8D0E0C0F894E0C0F898E0C0F89CE0ED
:100B100050F8081C41F4803140F8081C50F8082CAB
:100B2000013B4EF10001920301D40029F6D150F8A7
:100B3000081C890301D400BFFEE7416C4FF6F87230
:100B400041F001014164DCF80010CFF6FC7241F085
:100B50000101CCF80010016841F0800101600168DA
:100B600041F080610160016841F00051016001685D
:100B70000160016841F480510160D0F8901011408B
:100B8000C0F89010D0F8901048F2000241F4003103
:100B9000C0F2800241F00601C0F8901050F8041C29
:100BA000114040F8041C41F6C55250F8041CC0F234
:100BB0000012114340F8041C816F21F07F0181670E
:100BC000816F41F001018167816F41F06071816740
:100BD00050F8081C41F0807140F8081C50F8081CBF
:100BE0008901FBD5016821F003010160016841F032
:100BF00003010160016801F00C010C29FAD14FF0EA
:100C000000600021BDE8804000F0AABA00BF00BF2C
:100C100044F2044140F60010C5F60201C0F23D0066
:100C20004A68C2F3810210B5DFE802F0020D3A1201
:100C3000D1F8C00049F20001C0F2D031C0F3014048
:100C400021FA00F02CE047F64000C0F27D1027E0CA
:100C50000A68D1F800E00C68D1F8943002F03F0C3B
:100C6000CEF38812C3F301430132C4F30644012BCF
:100C700004F1010E0FD053B9D1F8C00049F20001C0
:100C8000C0F2D031C0F3014021FA00F003E047F692
:100C90004000C0F27D10B0FBFCF05043B0FBFEF012
:100CA00040F20C01C2F20041086010BD00000000DB
:100CB0004FF0B040002101600420C5F60000016043
:100CC00041608160C16041618161C16101624162D5
:100CD000704700BF00BF00BF70B5030A4FF0B04EB1
:100CE00000F01F04012505FA04FC042553F80E400A
:100CF000C5F6000524EA0C0443F80E405C592E1D8D
:100D000024EA0C045C519C5905F1080E24EA0C04F9
:100D10009C5153F80E4024EA0C0443F80E4021B1D4
:100D2000012908D105EB102001E003F1B040016872
:100D300041EA0C010160022A13D0012A6FEA0C007B
:100D40000CD0002A18BF70BD995941EA0C01995185
:100D500053F80E10084043F80E0070BD9959084032
:100D600002E0985940EA0C00985153F80E0040EA0E
:100D70000C0043F80E0070BD010A4FF0B04200F0C5
:100D80001F00012303FA00F08B5818438850704766
:100D9000010A4FF0B04200F01F00012303FA00F0F7
:100DA0008B5823EA00008850704700BF00BF00BF87
:100DB000042300F01F01000AC5F60003012202FA15
:100DC00001F1C2581143C150704700BF00BF00BFBE
:100DD000042300F01F01000AC5F60003012202FAF5
:100DE00001F1C25822EA0101C150704700BF00BFA3
:100DF000102300F01F01000AC5F60003012202FAC9
:100E000001F1C2581143C150704700BF00BF00BF7D
:100E1000102300F01F01000AC5F60003012202FAA8
:100E200001F1C25822EA0101C150704700BF00BF62
:100E30001422010AC5F6000200F01F00895821FAA9
:100E400000F000F001007047142300F01F01000AB9
:100E5000C5F60003012202FA01F1C150704700BF3C
:100E60001422010AC5F6000200F01F00895821FA79
:100E700000F000F001007047142300F01F01000A89
:100E8000C5F60003012202FA01F1C15070470000CB
:100E900000F1264000F1FF704FEAB0200A2888BF19
:100EA000704781B240F2FF6222FA01F1C90700D116
:100EB000704710B544F25C61C0F6020131F8104091
:100EC000204600F04DFA2046BDE8104000F058BA28
:100ED0002DE9F0430468D0F80CC04FF0000E4FF03D
:100EE0000308002605E000BF01360EF1020E102EA9
:100EF00012D023FA06F7FF07F6D008FA0EF724EA15
:100F0000070901FA0EF42CEA070702FA0EF544EA83
:100F1000090447EA050CE7E70460C0F80CC0BDE827
:100F2000F08300BF00BF00BF012902D1416819430F
:100F300001E0416899434160B0B5D0F808C0002194
:100F40004FF0030E002403E001340231102C0CD0CA
:100F500023FA04F5ED07F7D00EFA01F52CEA050C9B
:100F600002FA01F54CEA050CEEE7C0F808C0B0BD86
:100F70008161704700BF00BF8162704700BF00BF42
:100F80001823002A08BF28231950704700BF00BF4C
:100F90004161704700BF00BFB0B5D0F830E01C061B
:100FA0002EF0FF0C18BF0CEB010E13F47F4F2EF444
:100FB0007F4418BF44EA012E00210024C0F830E02D
:100FC0004FF0030ED0F834C004E000BF013402310A
:100FD000102C0CD023FA04F5ED07F7D00EFA01F52A
:100FE0002CEA050C02FA01F54CEA050CEEE7C0F814
:100FF00034C0B0BD00BF00BF0069084018BF012069
:10100000704700BF00BF00BF006980B2704700BFDB
:101010004069084018BF0120704700BF00BF00BFF3
:10102000406980B2704700BFF0B5D0F820E0D0F83A
:1010300024C000230F27002504E000BF013504333E
:10104000082D0CD022FA05F6F607F7D007FA03F6BA
:101050002EEA060601FA03F446EA040EEEE7082338
:1010600000240F2504E000BF01330434102B0CD002
:1010700022FA03F6F607F7D005FA04F62CEA06077B
:1010800001FA04F647EA060CEEE7C0F820E0C0F8E3
:1010900024C0F0BD00BF00BF41F48032C261C16115
:1010A000C261C169C0697047C162704700BF00BFBB
:1010B0004FF6FF71C16270474EF60C5140F08060F0
:1010C000CEF2000140F0FD700860704700BF00BF25
:1010D0004EF60C5CCEF2000CDCF8003003F4E0635A
:1010E000A3F54073B3F5A06F01D21B0A06E040F2EE
:1010F0000053C0F2FA53CCF80030022301FA03FC8B
:10110000C3F104030F21D94011404EF20012CEF278
:10111000000241EA0C0140EA02034FF01C0C0901F5
:1011200083F800130CEAD00100F01F00012303FA3A
:1011300000F08850704700BF1C214EF2801300F071
:101140001F0201EAD000CEF2000301219140C150FC
:10115000BFF34F8FBFF36F8F704700BF00BF00BF5B
:101160004FF68072C1F6FF7211404EF60852CEF271
:10117000000208431060BFF34F8F704700BF00BFED
:101180004EF61051CEF200010A6810430860704715
:101190004EF61051CEF200010A6822EA0000086003
:1011A000704700BF00BF00BF4EF210010428CEF20E
:1011B00000010A6822F0040208BF04320A60704786
:1011C0004FF480610022C0E9002140F20111027257
:1011D000C0F20101C0F80910704700BF00BF00BF96
:1011E00080B54EF6985C0179CEF2000CCCF8001078
:1011F0000168CCF8041090F80CE0037AC279417AC7
:101200001B0643EA0E7390F80AE043EAC242C37A2F
:1012100042EA8141827941EA4E41407941EA034103
:1012200041EA022141EA4000CCF8080080BD00BF3D
:101230004EF6A050CEF20000016841F001010160BD
:10124000704700000000000044F20040C5F60200B4
:10125000016841F0804101600168B1F1FF3FFBDCB2
:10126000816840F20C3221F0030181608168C0F294
:10127000C002114081604FF6FF720168CEF6F6227F
:1012800011400160016821F48021016042F22001D7
:10129000C0F20111A1F5803242600022C0F8841032
:1012A000C0F888100021C0F89810C1F2FF42C0F8C1
:1012B0009C10C0F8A010C0F8A410C2604FF4E00267
:1012C000C0F8CC20C0F88C10C0F89010C0F8941072
:1012D000C0F8D010C0F8F010704700BF00BF00BFCA
:1012E00044F2004300F01F018009C5F60203012209
:1012F00002FA01F1C2581143C150704700BF00BF4C
:1013000044F2004300F01F018009C5F602030122E8
:1013100002FA01F1C25822EA0101C150704700BF30
:1013200044F2004300F01F018009C5F602030122C8
:1013300002FA01F1C2581143C150704700BF00BF0B
:1013400044F2004300F01F018009C5F602030122A8
:1013500002FA01F1C25822EA0101C150704700BFF0
:1013600044F2004300F01F018009C5F60203012288
:1013700002FA01F1C2581143C150704700BF00BFCB
:1013800044F2004300F01F018009C5F60203012268
:1013900002FA01F1C25822EA0101C150704700BFB0
:1013A00044F27040C5F60200016841F480310160EA
:1013B000704700BF00BF00BF44F27040C5F6020096
:1013C000016821F480310160704700BF00BF00BF99
:1013D00044F20841C5F602010A6822F003021043F4
:1013E0000860704700BF00BF44F20840C5F6020025
:1013F000006800F00C00704744F20841C5F6020195
:101400000A6822F0F00210430860704700BF00BF76
:1014100044F20841C5F602010A6822F4E052104382
:101420000860704700BF00BF44F20841C5F60201E2
:101430000A6822F4604210430860704700BF00BF92
:1014400044F20841C5F602010A6822F060521043D6
:101450000860704700BF00BF44F20841C5F60201B2
:101460000A6822F0E06210430860704700BF00BFC6
:1014700044F290420843C5F60202136823F07F034A
:1014800018431060704700BF44F290420843C5F60D
:101490000202136823F4FE4318431060704700BF34
:1014A000022888BF704744F298430FF21C0CC5F61F
:1014B00002035CF820C0186800EA0C001860186885
:1014C0000843104318607047F8FFFFFF8FFFFFFFCE
:1014D000FFF8FFFF00BF00BF02281ED001280FD079
:1014E000002818BF704744F29C4041F6FF73C5F6D0
:1014F000020002689A43026002681143016070476B
:1015000044F29C4041F6FF73C5F6020042689A43DC
:101510004260426811434160704744F29C4041F68A
:10152000FF73C5F6020082689A43826082681143A5
:101530008160704700BF00BF022816D001280BD081
:10154000002818BF704744F29C40C5F602000168AD
:1015500041F400410160704744F29C40C5F602002E
:10156000416841F400414160704744F29C40C5F637
:101570000200816841F400418160704700BF00BFF4
:10158000022816D001280BD0002818BF704744F25B
:101590009C40C5F60200016821F4004101607047DB
:1015A00044F29C40C5F60200416821F400414160CC
:1015B000704744F29C40C5F60200816821F4004166
:1015C0008160704700BF00BF44F29841C5F6020138
:1015D0000A6822F440320A600A68104308607047C3
:1015E000A0F1010CBCF13E0F4FF0000C3AD870B5E1
:1015F000A1F1090E4FEADE0EBEF13E0F30D8DDF844
:1016000010E0541EAEF1010E013B44EA0E041C43EF
:101610007F2C25D844F204446FF03F06C5F602043F
:1016200006EB8111002648F20005CFF6FF76D4F8CC
:1016300000C0C8F2800506EB024205EA0C052560F1
:101640001143226841EA0E614FF0010C1143084337
:101650002060E06F20F07F00E067E06F1843E067F4
:10166000BDE8704060467047A0F1010CBCF13E0F30
:101670004FF0000C33D8B0B5A1F1090E4FEADE0EE1
:10168000BEF13E0F29D8DDF810E0541E5D1EAEF10C
:10169000010E2C4344EA0E047F2C1ED86FF03F0548
:1016A0004FF0010C05EB81110025CFF6FF7505EB1E
:1016B0000242114344F28042C5F6020241EA0E6141
:1016C00008435060106820F4FE4010606FF0FF0087
:1016D000116800EB032008431060BDE8B04060468D
:1016E000704700BF00BF00BFA0F1010CBCF13E0F6E
:1016F0004FF0000C31D8B0B5A1F1090E4FEADE0E63
:10170000BEF13E0F27D8DDF810E0541E5D1EAEF18D
:10171000010E2C4344EA0E047F2C1CD86FF03F05C9
:101720004FF0010C05EB81110025CFF6FF7505EB9D
:101730000242114344F28042C5F6020241EA0E61C0
:1017400008439060106820F4FE00106005EB034031
:10175000116808431060BDE8B0406046704700BFA4
:1017600044F28041C5F602010A68104308607047E0
:1017700044F28041C5F602010A6822EA00000860CE
:10178000704700BF00BF00BF80B544F2D44CC5F61F
:10179000020CDCF800E02EF0080ECCF800E0DCF8DB
:1017A00000E040EA0E00CCF80000DCF8040047F648
:1017B0007F7E20EA0E00CCF8040042EA0100DCF84B
:1017C000041018430843CCF8040080BD00BF00BFDC
:1017D00080B544F2D44CC5F6020CDCF800E02EF4DF
:1017E000006ECCF800E0DCF800E04EEA0020CCF817
:1017F00000004FF6FF7EDCF80400C8F2800E00EA1D
:101800000E00CCF8040042EA0100DCF80410184392
:1018100041EA0040CCF8040080BD00BF00BF00BF1B
:1018200044F27041C5F602010A6822F44072104386
:101830000860704700BF00BF44F20841C5F60201CE
:101840000A6822F47C1210430860704700BF00BF92
:1018500044F2C041C5F602010A6822F001021043B9
:101860000860704700BF00BF44F2C041C5F60201E6
:101870000A6822F0020210430860704700BF00BFF0
:1018800044F2C441C5F602010A6822F44032104312
:101890000860704700BF00BF44F2C440C5F60200B4
:1018A000016811F4403F0AD0016801F44031B1F5FC
:1018B000803F09D144F60000C0F2E810704749F2B9
:1018C0000000C0F2D0307047016801F44031B1F53A
:1018D000003F04D142F20040C0F2F40070470068BB
:1018E00000F440310020B1F5403F04BF41F2002038
:1018F000C0F27A00704700BF44F28C416FF0807CE8
:10190000C5F6020160450A6842EA000308BF22F0FA
:1019100080730B60704700BF052826D844F2F04260
:10192000C5F60202DFE800F003130B0F0719106879
:1019300020F0070015E0106820F4E0200AE01068AD
:1019400020F4E0600CE0106820F4E04009E010684A
:1019500020F070001060090104E0106820F4E0003D
:1019600009021060106808431060704700BF00BF94
:1019700001280ED0002818BF704744F29440C5F6E5
:101980000200C26B22F00102C263C26B1143C16349
:10199000704744F29440C5F60200026822F4805277
:1019A0000260026811430160704700BF00BF00BFC2
:1019B00044F29441C5F602010A6822F080720A607E
:1019C0000A6810430860704744F28C41C5F6020172
:1019D0000A6822F4403210430860704700BF00BF1D
:1019E00003281DD844F28C42C5F60202DFE800F05D
:1019F0000210060B106820F003000DE010680905C6
:101A000020F4401008E01068890520F4400003E04D
:101A10001068890420F440201060106808431060AA
:101A2000704700BF00BF00BF032813D8DFE800F0F5
:101A3000022D132044F29440C5F6020050F88C2C7D
:101A400022F0404240F88C2C50F88C2C42EA8171F4
:101A500040F88C1C704744F29440C5F602000268BE
:101A600022F00C020260026842EA810101607047C4
:101A700044F29440C5F60200026822F0300202608F
:101A8000026842EA01110160704744F29440C5F6D1
:101A90000200026822F00302026002681143016042
:101AA000704700BF00BF00BF44F28C420228C5F659
:101AB00002020DD0012806D0002818BF7047106818
:101AC00020F4407008E01068890020F4406003E0D2
:101AD0001068090120F4405010601068084310603D
:101AE000704700BF00BF00BF022844F29440C5F613
:101AF000020003D2026822F0406205E018BF70477E
:101B00000268890022F040520260026811430160BD
:101B1000704700BF00BF00BF44F290420128C5F6E5
:101B2000020206D0002818BF7047106820F4E02099
:101B300003E01068090120F4E00010601068084319
:101B40001060704700BF00BF44F290420128C5F604
:101B5000020206D0002818BF7047106820F0E0602D
:101B600003E01068090120F0E040106010680843AD
:101B70001060704700BF00BF44F28C41C5F60201FF
:101B80000A6822F030020A600A6810430860704751
:101B900044F2D041C5F602010A6822F440720A609C
:101BA0000A6810430860704744F28C41C5F6020190
:101BB0000A6822F000420A600A6810430860704711
:101BC00044F28C41C5F602010A6822F440420A60E0
:101BD0000A6810430860704744F2D4420128C5F6F1
:101BE000020206D0002818BF7047106820F4E020D9
:101BF00003E01068C90020F460101060106808430A
:101C00001060704700BF00BF44F2D4420128C5F6FF
:101C1000020206D0002818BF7047106820F060004C
:101C200003E01068090220F4C04010601068084307
:101C30001060704700BF00BF44F2D4420128C5F6CF
:101C4000020206D0002818BF7047106820F002007A
:101C500003E01068090220F4007010601068084367
:101C60001060704700BF00BF28B1012818BF70473F
:101C70004FF4805000E0102044F2D441C5F6020138
:101C80000A6810430860704728B1012818BF7047E0
:101C90006FF4805001E06FF0100044F2D441C5F6BB
:101CA00002010A6810400860704700BF00BF00BF13
:101CB00044F27041C5F602010A6822F0180210438E
:101CC0000860704700BF00BF0146B0F5E05F4FF00D
:101CD000000027DBB1F5445F48DAB1F5E05F00F0C2
:101CE000F180B1F5E85F00F0BD8043F2100291424F
:101CF00040F0E78044F2004C4FF6FE71C5F6020C4E
:101D0000C0F20F01002200BFDCF8C000013942F12F
:101D10000003800301D4002BF6D1DCF8C000C0F32F
:101D20004040704710390E2900F2CB80DFE801F007
:101D300008C9C9C9C9C9C9C982C96AC955C941003F
:101D400044F2004C4FF6FE70C5F6020C002200BFB4
:101D5000DCF80010013842F10003890301D4002BA4
:101D6000F6D1DCF80000C0F34040704700F0C480BA
:101D700043F21C12914200F08D8043F21E129142F8
:101D800040F09F8044F2004C4FF6FE71C5F6020C05
:101D9000C0F20F01002200BFDCF8C400013942F19B
:101DA0000003002801D4002BF6D1DCF8C400C00FDA
:101DB000704744F2004C40F2FF40C5F6020C00228E
:101DC000DCF80010013842F10003002901D4002B97
:101DD000F6D1DCF80000C00F704744F2004C4FF61B
:101DE000FE71C5F6020CC0F20F010022DCF8000003
:101DF000013942F10003800001D4002BF6D1DCF858
:101E000000005CE044F2004C4FF6FE71C5F6020C97
:101E1000C0F20F01002200BFDCF80000013942F1DE
:101E20000003000101D4002BF6D1DCF80000C0F360
:101E3000C060704744F2004C4FF6FE71C5F6020CCC
:101E4000C0F20F01002200BFDCF80000013942F1AE
:101E50000003800101D4002BF6D1DCF80000C0F3B0
:101E60004060704744F2004C4FF6FE71C5F6020C1C
:101E7000C0F20F01002200BFDCF87400013942F10A
:101E80000003800701D4002BF6D1DCF87400C0F306
:101E90004000704744F2004C4FF6FE71C5F6020C4C
:101EA000C0F20F01002200BFDCF8C400013942F18A
:101EB0000003800001D4002BF6D1DCF8C400C0F38D
:101EC000407070474FF6FE7144F2004CC0F20F01B3
:101ED000C5F6020C01F17F61002200BFDCF8700042
:101EE000013942F10003800701D4002BF6D1DCF860
:101EF0007000C0F34000704744F2004C4FF6FE7192
:101F0000C5F6020CC0F20F01002200BFDCF8C400CD
:101F1000013942F10003800701D4002BF6D1DCF82F
:101F2000C400C0F34000704744F200428109C5F686
:101F3000020200F01F00895821FA00F000F00100B1
:101F4000704700BF00BF00BF44F2004300F01F0114
:101F50008009C5F60203012202FA01F1C2581143B9
:101F6000C150704700BF00BF44F2004300F01F01A2
:101F70008009C5F60203012202FA01F1C25822EAE1
:101F80000101C150704700BFB0F5E05F0FD01028CD
:101F900018BF704744F20040C5F6020001680268AD
:101FA00022F48032026041F480210160704744F2E3
:101FB0000040C5F60200016F026F22F001020267C5
:101FC00041F0040101677047B0F5E05F0FD01028C1
:101FD00018BF704744F20040C5F60200016802686D
:101FE00022F48032026021F480210160704744F2C3
:101FF0000040C5F60200016F026F22F00102026785
:1020000021F004010167704744F20041C5F6020166
:102010000A6860F306020A60704700BF00BF00BF95
:1020200044F2C441C5F602010A6860F387020A60FF
:10203000704700BF00BF00BF44F20040C5F6020079
:10204000016841F400210160704700BF00BF00BF7C
:1020500044F20040C5F60200016821F4002101604D
:10206000704700BF00BF00BF44F27040C5F60200D9
:10207000016841F020010160704700BF00BF00BF50
:1020800044F27040C5F60200016821F020010160B1
:10209000704700BF00BF00BF2DE9F04344F28C48F9
:1020A0008146C5F60208D8F8381011F4403F0BD02D
:1020B000D8F8380000F44030B0F5803F09D144F63C
:1020C000000CC0F2E81C1DE049F2000CC0F2D03C4C
:1020D00018E0D8F8380000F44030B0F5003F04D1E3
:1020E00042F2004CC0F2F40C0CE0D8F838004FF08B
:1020F000000C00F44030B0F5403F04BF41F2002C2A
:10210000C0F27A0C58F8840C6446C0F3810EDFE804
:102110000EF06002091047F640044FF0000EC0F2C6
:102120007D1456E040F600144FF0000EC0F23D045E
:102130004FE058F8880C58F8882C58F8883CD8F8A4
:102140001060C2F38812C3F3064700F03F03300467
:1021500002F1010407F1010002D44FF0000E03E088
:10216000D8F810E06FF35F3ED8F80C2002F440324C
:10217000B2F5003F07D06546002A1CBF40F60015A7
:10218000C0F23D0503E047F64005C0F27D1500EEC4
:10219000104A01EE10EA9FEDE83A02EE105AB8EE4E
:1021A000400AB8EE411AB8EE422A01EE030A01EEE7
:1021B000103AB8EE411A82EE011A20EE010A01EE41
:1021C000100AB8EE411A80EE010ABCEEC00A10EE09
:1021D000104A58F8840C0FF2F45244F29465B9F1A5
:1021E000160FC0F30310C0F60205135C58F8840CF8
:1021F000C0F382202F5C58F8840CC0F34230285C76
:1022000058F8842CC2F3C262AE5C58F8842C00F2F9
:102210008D8224FA03F323FA07F723FA00F0DFE8AC
:1022200019F01700BC009A007F025800F200340138
:102230009D008D017B006B0139005C0015011A00C7
:10224000BF005301AF01D600F900AC01D000CA00B5
:102250002046BDE8F08358F8040C58F8044C58F8B0
:10226000041CD8F81820120400F03F0344BFD8F82B
:1022700018E06FF35F3ED8F80C2002F44032B2F55C
:10228000003F00F09981002A1CBF40F6001CC0F2FC
:102290003D0C95E158F8080C58F8084C58F8081C03
:1022A000D8F81420120400F03F0344BFD8F814E01B
:1022B0006FF35F3ED8F80C2002F44032B2F5003FD5
:1022C00000F08B81002A1CBF40F6001CC0F23D0CC0
:1022D00087E123FA06F0BDE8F08358F8040C58F8BB
:1022E000044C58F8041CD8F81820120400F03F03DE
:1022F00044BFD8F818E06FF35F3ED8F80C2002F422
:102300004032B2F5003F00F07981002A1CBF40F650
:10231000001CC0F23D0C75E158F8080C58F8084C48
:1023200058F8081CD8F81420120400F03F0344BFEA
:10233000D8F814E06FF35F3ED8F80C2002F4403276
:10234000B2F5003F00F06E81002A1CBF40F6001C71
:10235000C0F23D0C6AE13846BDE8F08358F8880CBD
:1023600058F8884C58F80C1CD8F81020120400F0CB
:102370003F0344BFD8F810E06FF35F3ED8F80C205D
:1023800002F44032B2F5003F00F05B81002A1CBF2E
:1023900040F6001CC0F23D0C57E11846BDE8F08342
:1023A000D8F8000000F44040B0F5004F09D00028F4
:1023B000604600F0B58140F60010C0F23D00BDE877
:1023C000F08347F64000C0F27D10BDE8F083D8F8F6
:1023D000000010F4401F384600F0A281D8F8000039
:1023E00000F44010B0F5801F184600F09981D8F82D
:1023F000000000F44010B0F5001F40F0CB814FF416
:102400000040BDE8F083C2F30260285C23FA00F0CC
:10241000BDE8F083D8F8001011F4400F00F080817F
:10242000D8F8000000F44000B0F5800F184608BF4F
:10243000BDE8F083D8F8000000F44000B0F5000FCC
:1024400040F0A1814FF40040BDE8F08358F8040C3F
:1024500058F8044C58F80C1CD8F81820120400F056
:102460003F0344BFD8F818E06FF35F3ED8F80C2064
:1024700002F44032B2F5003F00F00181002A1CBF97
:1024800040F6001CC0F23D0CFDE058F8880C58F8EE
:10249000884C58F8881CD8F81020120400F03F032C
:1024A00044BFD8F810E06FF35F3ED8F80C2002F478
:1024B0004032B2F5003F00F0F180002A1CBF40F628
:1024C000001CC0F23D0CEDE0D8F80010890700F0C8
:1024D0002781D8F8000000F003000128184600F01A
:1024E0001F81D8F8000000F00300022840F0598155
:1024F0004FF40040BDE8F08358F8080C58F8084C39
:1025000058F80C1CD8F81420120400F03F0344BF04
:10251000D8F814E06FF35F3ED8F80C2002F4403294
:10252000B2F5003F00F0D680002A1CBF40F6001C28
:10253000C0F23D0CD2E000BF0000003958F8880C12
:1025400058F8884C58F8881CD8F81020120400F06D
:102550003F0344BFD8F810E06FF35F3ED8F80C207B
:1025600002F44032B2F5003F00F0D080002A1CBFD8
:1025700040F6001CC0F23D0CCCE06046BDE8F083A4
:10258000D8F8000010F4402F384600F0C980D8F881
:10259000000000F44020B0F5802F184600F0C08005
:1025A000D8F8000000F44020B0F5002F40F0FF8084
:1025B0004FF40040BDE8F08347F6400CC0F27D1CAC
:1025C0000020002B18BFBCF1000F00F0A98058F8C4
:1025D0000C0C400000F1AD80A8E047F6400CC0F2C2
:1025E0007D1C0020002B18BFBCF1000F00F098806C
:1025F00058F80C0C000140F199809AE047F6400C25
:10260000C0F27D1C0020002B18BFBCF1000F00F0B1
:10261000878058F80C0CB0F1FF3FC4BF0020BDE824
:10262000F08349E047F6400CC0F27D1C0020002BEF
:1026300018BFBCF1000F73D058F80C0CC00075D552
:102640003AE047F6400CC0F27D1C0020002B18BF7A
:10265000BCF1000F64D058F80C0C000266D5C4F32E
:10266000881001EE10EA01309FED573A00EE100A93
:1026700002EE10CAB8EE411A01F07F0068E047F69A
:10268000400CC0F27D1C0020002B18BFBCF1000FD5
:1026900046D058F80C0C800048D50DE047F6400CA9
:1026A000C0F27D1C0020002B18BFBCF1000F37D0FA
:1026B00058F80C0C800139D5C4F3881001EE10EAEB
:1026C00001309FED413A00EE100A02EE10CAC1F34C
:1026D00006403BE047F6400CC0F27D1C0020002B7A
:1026E00018BFBCF1000F1BD058F80C0C40011DD5D1
:1026F000C4F3881001EE10EA01309FED333A00EE8A
:10270000100A02EE10CAC1F306201FE047F6400C83
:10271000C0F27D1C0020002B18BFBCF1000F01D1BE
:10272000BDE8F08358F80C0CC00102D40020BDE8CD
:10273000F083C4F3881001EE10EA01309FED223AD5
:1027400000EE100A02EE10CAC1F30660B8EE411A9C
:10275000B8EE400AB8EE422A01EE030A01EE103A42
:10276000B8EE411A82EE011A013020EE010A01EEA4
:10277000100AB8EE411A80EE010ABCEEC00A10EE53
:10278000100ABDE8F083D8F8000000F44000B0F56E
:10279000400F12E0D8F8000000F44010B0F5401FE0
:1027A0000BE0D8F8000000F00300032805E0D8F89B
:1027B000000000F44020B0F5402F18BF4FF0000C8F
:1027C0006046BDE8F08300BF000000390000000053
:1027D00000000000010203040607080900BF00BF53
:1027E00044F27440C5F60200016841F08071016056
:1027F000704700BF00BF00BF44F2004300F01F015C
:102800008009C5F60203012202FA01F1C258114300
:10281000C150704700BF00BF44F2004300F01F01E9
:102820008009C5F60203012202FA01F1C25822EA28
:102830000101C150704700BF44F200428109C5F652
:10284000020200F01F00895821FA00F000F0010098
:10285000704700BF00BF00BF44F2004300F01F01FB
:102860008009C5F60203012202FA01F1C2581143A0
:10287000C15070470000000080B54FF43060FEF793
:102880006FFD4FF43060BDE88040FEF779BD00BFBA
:1028900040F20441C5F600010A6810430860704721
:1028A00040F20441C5F600010A6822EA000008600F
:1028B000704700BF00BF00BF40F20441C5F60001F1
:1028C0000A6810430860704740F20441C5F60001F1
:1028D0000A6822EA00000860704700BF00BF00BF1E
:1028E00080B548F2000340F2044CC4F20203C5F67E
:1028F000000C98424FF016006FF480024FF48003F2
:1029000008BF172004BF6FF400024FF40003DCF887
:1029100000E001FA00F00EEA020118400843CCF88A
:10292000000080BD00BF00BF8A08032A16D80C2310
:1029300003EA81010F2303FA01FC88406FEA0C01CE
:10294000DFE802F002230D1840F20842C5F600024B
:10295000136819401160116808431060704740F215
:102960000842C5F6000293681940916091680843D7
:102970009060704740F20842C5F60002D3681940E3
:10298000D160D1680843D060704740F20842C5F674
:102990000002536819405160516808435060704705
:1029A00040F21841C5F600010A68104308607047FC
:1029B000020E062A18D8C0F307410F23C0B203FA4B
:1029C00001FC88406FEA0C01DFE802F004301A25B0
:1029D0000F3B460040F23442C5F60002136819402E
:1029E0001160116808431060704740F23442C5F628
:1029F00000021369194011611169084310617047A1
:102A000040F23442C5F60002936819409160916823
:102A100008439060704740F23442C5F60002D36824
:102A20001940D160D1680843D060704740F2344209
:102A3000C5F6000253681940516051680843506060
:102A4000704740F23442C5F60002536919405161A3
:102A5000516908435061704740F23442C5F60002A4
:102A6000936919409161916908439061704700BF73
:102A700040F22041C5F600010A6822F0010210432D
:102A80000860704700BF00BF40F22040C5F600005C
:102A9000016841F480310160704700BF00BF00BF92
:102AA00040F22040C5F60000016821F48031016049
:102AB000704700BF00BF00BF40F228420128C5F6A2
:102AC0000002106814BF61F3071061F30300106087
:102AD000704700BF00BF00BF40F26441C5F600016F
:102AE0000A6822F003020A600A681043086070470F
:102AF00040F26440C5F60000006800F00300704733
:102B000040F20070C5F600000068C0F30210704784
:102B100040F26840C5F60000016841F00101016023
:102B2000704700BF00BF00BF40F26840C5F600001C
:102B3000016821F001010160704700BF00BF00BFC4
:102B400040F25C41C5F600010A6810430860704716
:102B500040F25C41C5F600010A6822EA0000086004
:102B6000704700BF00BF00BF40F22041C5F6000122
:102B70000968084018BF0120704700BF00BF00BFB0
:102B8000012809D088B940F25440C5F60000006819
:102B900049B1C0F39510704740F254400029C5F682
:102BA00000004068F5D1000F70470020704700BF5B
:102BB00040F20070C5F60000006800F003007047A6
:102BC00010B547F2FF71C4F20001884214DC44F6EC
:102BD000FF31C4F20001884223DC44F20041C4F218
:102BE000000188423BD044F60001C4F20001884253
:102BF00048D140F612043DE040F6FF71C4F20101F5
:102C000088421DDC47F60001C4F20001884229D049
:102C100047F60041C4F20001884233D140F61F0458
:102C200028E044F60041C4F2000188421DD045F27C
:102C30000001C4F20001884224D140F6140419E0D6
:102C400041F20001C4F20101884211D041F2004179
:102C5000C4F20101884215D140F605140AE040F69D
:102C6000110407E040F61E0404E040F6130401E0FE
:102C700040F604142046FEF773FB2046BDE81040E2
:102C8000FEF77EBB10BD00BFB0B547F2FF72044631
:102C9000C4F200020D4690424FF0000013DC44F6EF
:102CA000FF31C4F200018C421CDC44F20041C4F24A
:102CB00000018C424AD044F60001C4F200018C426B
:102CC0001FD112201BE040F6FF71C4F201018C42BB
:102CD0002EDC47F60001C4F200018C420ED047F60C
:102CE000004107E044F60041C4F200018C4205D0E7
:102CF00045F20001C4F200018C4202D10220FFF72C
:102D0000CBF92168090406D400EB5500B0FBF5F0BF
:102D100080B2E060B0BD40004FF6F07100EB5500AE
:102D2000B0FBF5F00140C0F342000844E060B0BDE4
:102D300041F20001C4F201018C4209D041F200418C
:102D4000C4F201018C42DCD11320D8E71120D6E770
:102D50001020D4E700BF00BF026822F00102026029
:102D6000026822F4C0620260026811430160704789
:102D7000026822F001020260026822F01022026062
:102D80000268114301607047026822F0010202608C
:102D9000426822F4405242604268114341607047E9
:102DA000016841F001010160704700BF00BF00BF32
:102DB000016821F001010160704700BF00BF00BF42
:102DC000026822F008020260026811430160704745
:102DD000026822F004020260026811430160704739
:102DE000026801F4002122F001020260426822F42C
:102DF00000224260426811434160704700BF00BF3B
:102E00000268072922F00102026025D8DFE801F0FC
:102E100004180C10081C2014416841F480211AE0A9
:102E2000416841F4803116E0416841F4003112E01C
:102E3000416821F400310EE0416821F400410AE0CC
:102E4000416821F4802106E0416821F4803102E0EC
:102E5000416841F400414160704700BF00BF00BFBE
:102E6000016821F001010160816821F480518160D5
:102E7000704700BF00BF00BF016821F00101016081
:102E8000816841F480518160704700BF00BF00BF7E
:102E9000026822F001020260026822F4004202602D
:102EA0000268114301607047026822F0010202606B
:102EB000826822F4006282608268114381607047F8
:102EC000416841F400014160704700BF00BF00BF8E
:102ED000416821F400014160704700BF00BF00BF9E
:102EE000426902F07F424261426911434161704789
:102EF0006FF39F2181627047406A6FF35F207047D4
:102F00008269114381617047016821F0010101600C
:102F1000416841F001014160704700BF00BF00BF40
:102F2000016821F001010160416821F00101416067
:102F3000704700BF00BF00BF016821F001010160C0
:102F4000816841F480318160704700BF00BF00BFDD
:102F5000016821F001010160816821F48031816004
:102F6000704700BF00BF00BF026822F0010202608C
:102F7000426822F07F424260426842EA0161416059
:102F8000704700BF00BF00BF026822F0010202606C
:102F9000826822F07F428260826842EA0161816039
:102FA000704700BF00BF00BF026801F0100122F0AF
:102FB00001020260426822F010024260426811433E
:102FC0004160704700BF00BF026801F4000122F0B9
:102FD00001020260826822F400028260826811436A
:102FE0008160704700BF00BF016841F4005101607B
:102FF000704700BF00BF00BF016821F400510160AD
:10300000704700BF00BF00BF026822F001020260EB
:10301000026822F400620260026811430160704796
:10302000016821F001010160416841F48041416083
:10303000704700BF00BF00BF016821F001010160BF
:10304000416821F480414160704700BF00BF00BF6C
:10305000026801F0200122F001020260426822F0C1
:1030600020024260426811434160704700BF00BFC8
:10307000016821F001010160816841F0080181606F
:10308000704700BF00BF00BF016821F0010101606F
:10309000816821F008018160704700BF00BF00BF58
:1030A000016821F001010160416841F40061416063
:1030B000704700BF00BF00BF016821F0010101603F
:1030C000416821F400614160704700BF00BF00BF4C
:1030D000D0F800C02CF0010CC0F800C0D0F804C03B
:1030E0002CF4E06CC0F804C001F4807C416841EA33
:1030F0000C01416002F4007142681143416003F425
:103100008061426811434160704700BF00BF00BF4B
:103110000268090289B222F001020260026922F407
:103120007F420261026911430161704700BF00BF25
:10313000016821F001010160816841F02001816096
:10314000704700BF00BF00BF016821F001010160AE
:10315000816821F020018160704700BF00BF00BF7F
:10316000016821F001010160816841F01001816076
:10317000704700BF00BF00BF016821F0010101607E
:10318000816821F010018160704700BF00BF00BF5F
:10319000D0F8D01041F00101C0F8D010704700BF46
:1031A000D0F8D01021F00101C0F8D010704700BF56
:1031B000026801F0070122F001020260826822F435
:1031C00060228260826842EA41418160704700BFAC
:1031D000426922F07F424261426942EA01614161F3
:1031E000704700BF00BF00BF016821F0010101600E
:1031F000816841F002018160704700BF00BF00BFDD
:10320000016821F001010160816821F00201816003
:10321000704700BF00BF00BF026822F001020260D9
:10322000026922F0FF0202610269114301617047E5
:10323000026801F0040122F001020260826822F0BB
:1032400004028260826811438160704700BF00BF42
:10325000026822F001020260826822F480728260B9
:103260008268114381607047026822F001020260A7
:10327000826822F400728260826811438160704724
:10328000D0F8C02001F0010122F00102C0F8C020F6
:10329000D0F8C0201143C0F8C010704700BF00BF75
:1032A000016821F001010160816841F48041816081
:1032B000704700BF00BF00BF016821F0010101603D
:1032C000816821F480418160704700BF00BF00BF6A
:1032D000026801F01F0122F001020260026822F080
:1032E00078720260026842EA41510160704700BF93
:1032F000026801F01F0122F001020260026822F45C
:10330000F8120260026842EA01410160704700BFA2
:10331000026801F4004122F001020260826822F496
:1033200000428260826811438160704700BF00BF25
:10333000826822F0400211438160704700BF00BFE5
:10334000826822F0800211438160704700BF00BF95
:10335000016821F001010160816841F40051816040
:10336000704700BF00BF00BF016821F0010101608C
:10337000816821F400518160704700BF00BF00BF29
:10338000016841F002010160704700BF00BF00BF4B
:10339000016821F002010160704700BF00BF00BF5B
:1033A000026801F4401122F001020260826822F4F6
:1033B00040128260826811438160704700BF00BF85
:1033C000D0F8D01041F48071C0F8D010704700BF21
:1033D000D0F8D01021F48071C0F8D010704700BF31
:1033E000D0F8D02022F46012C0F8D020D0F8D0203D
:1033F0001143C0F8D0107047D0F8D02022F4E0225A
:10340000C0F8D020D0F8D0201143C0F8D0107047B9
:10341000D0F8D010D0F8D000C1F3023100F006008F
:1034200041EA8000704700BF8A0901F01F0110586F
:10343000C84000F00100704743F20642914213D0A9
:1034400043F20802914208D040F20D72914212D12B
:10345000016A41F4803101627047D0F8C01021F454
:103460008071C0F8C0107047D0F8D01041F0806172
:10347000C0F8D010704701F01F01012202FA01F1DB
:10348000026A1143016270478A0901F01F0101239A
:1034900003FA01F1135819431150704700BF00BFE0
:1034A0008A0901F01F01012303FA01F1135823EAED
:1034B00001011150704700BFC1F389128B0D1258E2
:1034C0001858C1F3044301F01F01D84022FA01F15A
:1034D000084000F00100704743F20942C3F20F4276
:1034E00091420CD043F21F42C3F2184291420DD1D7
:1034F000D0F8D01041F08061C0F8D0107047D0F8FB
:10350000D01021F40041C0F8D0107047C1F304413D
:10351000012202FA01F1026A1143016270470000C0
:103520000B4800F500414FF00002E0E8022288421B
:10353000FBD10848804708480047FEE7FEE7FEE762
:10354000FEE7FEE7FEE7FEE7FEE7FEE7FEE7000038
:1035500000000024E9090008A5030008000000009D
:10356000B0B510A1044631F81000FDF7B9FE44F2E1
:10357000746044F28461C0F60200C0F602010022C9
:1035800050F8245051F82440012128462346FDF7E5
:103590009FFC0021012228462346FDF7C5FCAC62B2
:1035A000B0BD00BF020F020F020F020F00BF00BF2D
:1035B00044F2746144F28462C0F60201C0F6020271
:1035C00051F8201052F820008861704700BF00BFFA
:1035D00044F2746144F28462C0F60201C0F6020251
:1035E00051F8201052F820008862704700BF00BFD9
:1035F00044F2746144F28462C0F60201C0F6020231
:1036000051F8201052F82000C862704700BF00BF78
:1036100010B540F603700C46FDF762FE4FF498506B
:10362000FDF75EFE40F600400021C5F602000022D4
:103630004FF40043FDF74CFC012C18BF10BD2820AF
:1036400002210022FDF744FD03200F21FFF76CF952
:103650000F2000210022FDF73FFB0F20BDE81040A6
:10366000FDF70ABC00BF00BF40F600404FF4004128
:10367000C5F60200FDF7C0BCB0B5044640F60570C3
:10368000FDF72EFE41F20410FDF72AFE41F200453F
:103690000421C5F6020510222846FDF7C5FC0421C9
:1036A00020222846FDF7C0FC0221012210232846D3
:1036B000FDF70EFC0021032210232846FDF734FC01
:1036C0000221012220232846FDF702FC00210322CB
:1036D00020232846FDF728FC2046FFF771FA4FF417
:1036E000E1312046FFF7D0FA04212046FFF770FBB6
:1036F00008212046FFF764FB2046BDE8B040FFF7F5
:103700004FBB0000000000002DE9F0414FF6D071E2
:10371000CEF20F010B7D0C7E0A784DF6D071CEF201
:103720000F011B0964F306130D7D0E7E91F800C096
:103730004EF6D071CEF20F01512B0F7D0C7E097821
:103740001EBF2B0966F30613512B6DD102F00F0239
:10375000072A1CBF0CF00F02072A6BD1016907462C
:10376000866942F2FC40C2F200400C6801602046CB
:1037700000F062FF00281CBF0120BDE8F081204658
:1037800000F02AFCF9690871601C00F025FCF96959
:103790004871A01C00F020FCF9698871E01C00F061
:1037A0001BFCF969C871201D00F04AFF00281CBFEE
:1037B0000220BDE8F08104F10805284600F044FF2E
:1037C00000281CBF0320BDE8F081284600F004FC5F
:1037D000307004F1090000F0FFFB804604F10E0098
:1037E00000F0FAFBB07004F10F0000F0F5FBF9698E
:1037F0000C34F07081B1204600F0F2FBF969C88109
:103800008000A1F80C8000F0FBFEF9698861C8B166
:10381000C98989001FF011FE7969321D2046BDE873
:10382000F04100F015B800BF3B0964F30613512BBB
:1038300004D18BE701F00F0107298FD01320BDE8D9
:10384000F08100BF0820BDE8F08100BF00BF00BFCD
:103850002DE9F04715468846074600F0C1FB814632
:10386000381D00F0C1FB0646282000F0C9FE0028E4
:1038700056D042F2FC4A0446C2F2004A0837286099
:103880003946DAF800006062204600F025FC002886
:1038900018BFBDE8F087BD19B9F1020FD8F80000D4
:1038A00060611DD3A9F1010908F10407282000F087
:1038B000A7FE2062A0B30446284600F095FB04351D
:1038C0000646DAF8000060622046294600F004FC53
:1038D00020BB3544B9F1010957F8040B6061E5D10B
:1038E000284600F081FB40F20471C9F63801884295
:1038F0001AD140F23804C2F20044206868B142F2A2
:103900002C560025C2F20046342000F079FE46F81D
:103910002500013520688542F6D30020BDE8F087F8
:103920000820BDE8F08700BF0D20BDE8F08700BF8C
:1039300010B50446D0E9001242F28060C2F20040A5
:103940001FF062FDA1692046897819B1BDE81040D9
:1039500000F072B8BDE8104000F002B800BF00BF30
:10396000F0B581B02DED068B0446D0E906104D6808
:1039700080B386698DB340F20C079FED2D1AC2F219
:10398000004797ED000AB8EE400A81EE009AFCF776
:10399000D7FFB0EE490A3868FCF7EAFFB0EE408A7C
:1039A000B0EE40AA02E000BF2D6ADDB1286AD0B1B6
:1039B000696928468847E0690028F5D0B0EE490AD1
:1039C0003868FCF7D5FF30EE4A1AB0EE40AAA6ECF4
:1039D000011AE9E70026002DCDD10520BDEC068BAC
:1039E00001B0F0BD0025696928468847B0EE490A54
:1039F0003868FCF7BDFFE06938B130EE4A1A30EEA6
:103A0000480A86ED001A80ED050AFCF7DDFF42F258
:103A10005C5042F28061C2F20040A268C2F20041F2
:103A20000068084410600020BDEC068B01B0F0BDBA
:103A3000FFFF7F4B00BF00BF2DE9F0412DED068B4E
:103A40000446D0E90680D8F8045078B3876985B376
:103A500040F20C069FED591AC2F2004696ED000A9C
:103A6000B8EE400A81EE009AFCF76AFFB0EE490A10
:103A70003068FCF77DFFB0EE408AB0EE40AA01E06E
:103A80002D6ADDB1286AD0B1696928468847E069A6
:103A90000028F5D0B0EE490A3068FCF769FF30EE37
:103AA0004A1AB0EE40AAA7EC011AE9E70027002D58
:103AB000CED10520BDEC068BBDE8F08100256969FB
:103AC00028468847B0EE490A3068FCF751FFE069A4
:103AD00038B130EE4A1A30EE480A87ED001A80ED10
:103AE000050AFCF771FF98F802306BB1012B11D178
:103AF00042F25C5042F28061C2F20040A268C2F21F
:103B000000410068084410600020BDEC068BBDE851
:103B1000F08100BF581E42F25C5E032842F28060D2
:103B200003F0030CC2F2004EC2F2004002D20023A6
:103B300020E000BF6FF00C07002607EA8307002390
:103B4000A5685EF8062002440433AA510EEB060273
:103B5000A56835445168014469609568A1680544C9
:103B600031448D60D168A268014432441036B742B6
:103B7000D160E5D1BCF1000FC6D0A1685EF823206A
:103B8000BCF1010F024441F82320BDD0591CA268AA
:103B9000BCF1020F5EF8215000EB050742F82170DE
:103BA000B2D0991CA3685EF82120104443F821008C
:103BB0000020BDEC068BBDE8F08100BFFFFF7F4B0E
:103BC000B0B5D0E906014068046A31B1896921B114
:103BD0000546084620F0F0FC2846002808BFB0BD86
:103BE00000F01EFA216A002C20460C46F8D1B0BD28
:103BF0002DE9F04F8BB0C469018B274604F1240AEC
:103C0000D0E9036557F8042F04EB411842F05E42F7
:103C10003A60407A08F1040B08F12409012819D010
:103C2000002851D12169D8F81030E2699942E06B3F
:103C3000D8F81C30D8F83C104AD1CDE90039CDE98C
:103C4000021A0490284639465B4602F0F1FD0BB09B
:103C5000BDE8F08F42F2EC4042F2E441C2F2004093
:103C6000C2F200410A95E5690160206B820042F2D0
:103C70009C20E16B0991D8F81C100891D8F83C10F1
:103C8000C2F200401FF0C0FB2069D8F81010884233
:103C900006F108022AD108980999CDE9020942F2F1
:103CA0009C200691C2F200400A99CDE9040A42F232
:103CB000EC403B46C2F20040CDE9005B00F008FD5D
:103CC0000BB0BDE8F08F00BF00200BB0BDE8F08F57
:103CD000CDE90039CDE9021A0490284639465B4601
:103CE00003F0CAFA0BB0BDE8F08F00BF089809993D
:103CF000CDE9020942F29C200791C2F200400490F3
:103D000000200A99CDE9050A42F2EC403B46C2F296
:103D10000040CDE9005B06F05BF80BB0BDE8F08F2A
:103D20002DE9F04F89B0018BC369427A056903F12F
:103D3000040A03F1240703EB4111012A01F10406EF
:103D400001F124041AD0002A4CD1286ADA69D3F888
:103D50003CC00128CB69C96B48D1E869012845D12D
:103D600002A8CDE9003480E8821028465146334647
:103D700001F03AFA09B0BDE8F08F00BF42F2F44218
:103D800042F2E44CC2F20042D0F80CB0186BC2F21E
:103D9000004CC2F800C0DA6B0892820042F29C200C
:103DA000D1F81C90C96BC2F20040D3F81C801FF000
:103DB0002BFB42F29C200BF10802C2F20040294684
:103DC000CDE904070898069042F2F4405346C2F247
:103DD0000040CDE90086CDE9029400F0F5FE09B07F
:103DE000BDE8F08F002009B0BDE8F08F02A8CDE952
:103DF000003480E8821028465146334602F000F92C
:103E000009B0BDE8F08F00002DE9F04F95B0028BAE
:103E1000817EC669022906EB421707D0012973D1BA
:103E200006F1200507F1010C0EE000BFF9694AF622
:103E30006202C0F22F320968914265D106F1200773
:103E400006F1400506F1210C42F25C2A7468C2F2C8
:103E5000004AB16842F27C297278CAF80410F1680D
:103E6000CAF808103169CAF80C1051467B68C2F2D2
:103E7000004941F8103FD0F81080BB68CAF81430F0
:103E8000FB68CAF818303B69CAF81C30CAF8004011
:103E90006B68C9F80030AB68C9F80430EB68C9F842
:103EA00008302B69C9F80C309CF80030447A0FA810
:103EB0000090504604F064FF012C29D004BB331D50
:103EC000D5F81CC00ECB02FB01F1326903FB01F1F6
:103ED00001FB02F3F169FA6960B3D7E90106FD68F5
:103EE0003F697043012B05FB00F000FB07FE55D135
:103EF00091ED000A404611466246734603F0E8FF22
:103F0000002015B0BDE8F08F162015B0BDE8F08F89
:103F1000F2690028F969E86914D0CDE900190AF1BD
:103F2000100302904046514604F052F815B0BDE827
:103F3000F08F00BF00934046634603F035FF15B095
:103F4000BDE8F08FD6E90137F56808F1100B7B4327
:103F500037696B43D8E9026503FB07FED8F80030E8
:103F60000E93D8F804300D939BE8900ED8E9093CE5
:103F7000D8F82C80CDE9043006A8CDE9006580E8AA
:103F8000001E1046DDE90D32CDE90247CDE90A8E6B
:103F900000F07AFE002015B0BDE8F08FBEF1010FF1
:103FA0000AD192ED000A4046624603F091FF0020DC
:103FB00015B0BDE8F08F00BFCDE900290AF110036C
:103FC00040460A465146CDF808C004F0C5F915B080
:103FD000BDE8F08F000000000078704700BF00BF10
:103FE0000088704700BF00BF0068704700BF00BF77
:103FF00090F90000704700BFB0F90000704700BFA3
:104000000068704700BF00BF006800EE100A7047EC
:1040100002684068C1E9002070470000000000000D
:1040200010B50446407A20B1E06820F0C5FA0020BF
:10403000E060206920F0C0FA00202061E06920F0F3
:10404000BBFA2046BDE8104020F0B6BA00BF00BF62
:10405000B0B5044600284FF0050018BF002901D173
:10406000B0BD00BF08460D46FFF7BAFF2080A81C70
:10407000FFF7B6FF6080281DFFF7AEFF2071681DB7
:10408000FFF7AAFF6071A81DFFF7A6FFA071E81D4A
:10409000FFF7A2FFE07105F10800FFF79DFF207216
:1040A00005F10900FFF798FF42F264516072C2F215
:1040B0000041087005F10A00FFF78EFFA07205F1BC
:1040C0000B00FFF789FFE0720020C4E90300606184
:1040D000C4E90700B0BD00BF2DE9F04F81B0044630
:1040E00000284FF0050000F045810E46002900F041
:1040F000418120463146FFF7ABFF607A06F10C079D
:1041000094F8088048B107F07FF90028E06063D098
:10411000394607F07DF906F11C07207904F11001FA
:104120003A4607F099F9E07A3E183046FFF758FF13
:104130002083B01CFFF750FFA076F01CFFF74CFF68
:10414000E076404600F084FA0028E06144D0B8F1FF
:10415000000F45D04AF6630A043600271C25C0F23A
:104160002F3A0FE059F8040C00F04AFA59F8041CF1
:104170004BF805001FF061F901371C36B84505F111
:1041800020052DD0D4F81CB031460BEB0509A9F160
:104190001C0000F061FAB9B2208B8842ECD959F8C2
:1041A000080C42F280615045C2F2004101444BF8D4
:1041B0000510D7D04AF66201C0F22F318842DBD118
:1041C00019F8190C46F2A061C2F2034151F820001F
:1041D0004BF80500D0E700BF082001B0BDE8F08F24
:1041E0002079332800F27F80DFE800F02828397D2D
:1041F0007D287D7D7D7D7D7D7D7D1A7D1A7D7D7D0A
:104200007D1A1A1A7D7D1A1A7D7D7D7D477D7D7D03
:104210001A7D7D7D1A7D7D7D7D7D287D7D7D7D1A4C
:10422000616A096831B1228BE36903EB4212536979
:104230001944D161202820D02E2854D1A17A626A55
:1042400052F8211059B112684AB1238BE76907EB84
:1042500043135F695E6B3944D9619119D963617AFF
:1042600049B1616A096831B1E268536857690F441E
:104270001944C2E90217202835D1278B207A8742BA
:1042800039D27E0105E000BF207A0137203687420F
:1042900028D2606A006828B3E269218B951901F180
:1042A0001102BA426A6900EB0209C5F81C900AD1F2
:1042B000A86900F0A5F9AA69494680461FF0A4F84C
:1042C000218BC5F81C8001F11200B842DCD1A8692D
:1042D00000F096F9AA69494680461FF095F8C5F89E
:1042E0001C80D1E720792A2803D1204600F0CCF8A1
:1042F0002079202813D1607AD8B3606A0068C0B3EF
:10430000E76879684518E02000F07AF9064620460B
:104310002946324608F0E0FB2079C7E902562A28F0
:1043200027D1607A28B3606A006810B3D4F80C9083
:10433000D9F804104518E02005F5C27800F060F9BE
:104340000746E02000F05CF906460090204629462A
:1043500042463B4608F0F8FF082000F051F90446B9
:104360000820C4E9005800F04BF9C0E90076C9E91B
:104370000240002001B0BDE8F08F00BF00BF00BFC9
:10438000416A096841B1028BC06900EB4210426981
:104390001144C161002070471420704700BF00BF66
:1043A000014600284FF00E0008D08A7A4B6A53F875
:1043B0002220002A1CBF1B68002B01D1704700BFC0
:1043C000088BC96901EB4010416BD0F814C0194447
:1043D0006244C261C1630020704700BF00BF00BFDC
:1043E000416A096841B1C068426843690B4411449D
:1043F000C0E90213002070470F20704700BF00BFC4
:104400002DE9F04381B08046078B007A874233D292
:104410007C0105E098F808000137203487422BD250
:10442000D8F82400006858B3D8F81C20B8F8181041
:10443000161901F11102BA42726900EB0205F56129
:104440000BD1B06900F0DCF8B269294681461EF054
:10445000DBFFB8F81810C6F81C9001F11200B84242
:10446000D8D1B06900F0CCF8B269294681461EF077
:10447000CBFFC6F81C90CDE7002001B0BDE8F0836B
:10448000142001B0BDE8F0832DE9F04381B08146EE
:10449000078B007A87425DD27D0105E099F808001C
:1044A00001372035874255D2D9F824000168002908
:1044B00054D0D9F81C20B9F81800541900F1220280
:1044C000BA42626901EB0208C4F81C800CD000F10A
:1044D0002401B94217D000F12301B94222D025307E
:1044E000B842DBD12CE000BFA06900F089F8A269D6
:1044F000414606461EF088FFB9F81800E66100F153
:104500002401B942E7D1A06900F07AF8A2694146D6
:1045100006461EF079FFB9F81800E66100F12301A4
:10452000B942DCD1A06900F06BF8A26941460646A9
:104530001EF06AFFB9F81800E6612530B842ADD127
:10454000A06900F05DF8A269414606461EF05CFFD6
:10455000E661A3E7002001B0BDE8F083142001B0BC
:10456000BDE8F08300BF00BF416A0968A1B1F0B5A2
:1045700081B0C7680546E0207A688C1800F040F8E2
:10458000064628462146324608F0A6FAC7E9024602
:10459000002001B0F0BD00BF0F20704700BF00BF7A
:1045A000416A096851B32DE9F04782B0D0F80CA0F8
:1045B0008046E020DAF804208C1804F5C27900F077
:1045C0001FF80746E02000F01BF806460090404622
:1045D00021464A463B4608F0B7FE082000F010F896
:1045E00005460820C5E9004900F00AF8C0E9007650
:1045F000CAE90250002002B0BDE8F0870F207047E2
:1046000042F25822C2F200421168033121F0030342
:1046100041F6E001C2F20041184419441060084616
:1046200070470000000000000020704700BF00BF7E
:104630000020704700BF00BF0020704700BF00BFD0
:104640000020704700BF00BF00207047000000003E
:104650004001FFF7D5BF00BF70B50525002818BF82
:10466000002901D1284670BD044608460E46FFF7D2
:10467000B3FC2070701CFFF7AFFC6070B01CFFF73C
:10468000ABFCA070F01CFFF7A7FCE070301DFFF73B
:10469000B7FC606006F10800FFF7B2FCA06006F10D
:1046A0000C00FFF7ADFCE06006F11000FFF7A8FC7E
:1046B000206106F114000025E561FFF795FC6061BB
:1046C00006F11800FFF790FCA061284670BD0000BD
:1046D0002DE9F04F8BB0D1F810A01E461446884645
:1046E0000246169DDDE9193EDDE917B0BAF1000F6B
:1046F000DDE9141932D1D8F814707FBBD9F80870ED
:10470000012F2BD1D9F80470012F27D1D8F81870B8
:10471000012F23D1D8F81C70012F1FD142F2585716
:10472000B246C2F200473F78002F00F0D581012F3A
:1047300040F0D681D9F80C70AC46BE0700F0E2819B
:10474000002E654640F0CC81D9F80060774341F2F5
:104750007076B74240F3C481FBE100BFCDE909B0F8
:10476000B3467668012E4FD1D8F818708C461146A2
:10477000012F40F0A7802246D9F80440012C0AD12D
:10478000D8F80840DBF80C00604300F0030050EA62
:104790000A0000F04381D9F804001446012840F0D3
:1047A0009180BAF1000F40F08D80DBF80C00D8F852
:1047B00008406043144610F0030000F0838042F28A
:1047C0005857D8F81400C2F2004700283F7840F04C
:1047D0004981012F00F24681D9E902077843042874
:1047E0000846C0F25D81CDE9193E0A9918910999F0
:1047F0002246CDE91651CDE914C941465B460BB0BE
:10480000BDE8F04F0CF050BD42F25850C2F20040EB
:104810000078012800F23081D9F808C0BCF1030FFC
:1048200040F02A81D9F8040003287DD1D8F8180077
:10483000012879D1D8F81C00012875D1D8F80800D2
:10484000022871D1D8F80C0002286DD1D9F80C00DB
:10485000032869D1D8F81400824565D1BAF1010F57
:1048600062D146F2C960C2F20340007800285BD1F1
:10487000F00704BFDBF808705FEAC77040F0FC8007
:104880005868B6EB400F40F0F7809868B7EB400FE0
:1048900040F0F280CDE900B1CDE90295099804908D
:1048A00042F268510A98CDE90503C2F20041104670
:1048B00042462346CDF81CE00FF0B6FD0BB0BDE834
:1048C000F08F00BF42F258500A46C2F200406146E3
:1048D0000078022880F0D080D9F808C0BCF1010F20
:1048E00000F0CA80012F99D1BAF1010F96D1D9F801
:1048F0000400012892D1D9F80C0000FB0CF0042828
:10490000C0F2BA80CDE9193E0A98189009985B4622
:10491000CDE91650CDE914191046414622460BB098
:10492000BDE8F04F0CF0DCBFD9F80400032837D104
:10493000D8F81800012833D1D8F81C0001282FD14D
:10494000D8F8080002282BD1D8F80C00022827D16B
:10495000D9F80C00032823D1D8F8140082451FD1C0
:10496000BAF1000F1CD146F2C960C2F203400078D0
:10497000B0B9CDE900B1CDE902950998049042F2B1
:1049800068510A98CDE90503C2F20041104642463B
:104990002346CDF81CE00FF05BF90BB0BDE8F08FBB
:1049A000D9F80400032867D1D8F81800012863D18A
:1049B000D8F81C0001285FD1D8F8080001285BD185
:1049C000D8F80C00012804BFD9F80C705FEA877092
:1049D00052D1BAF1010F4FD1D8F8140001284BD1B0
:1049E000102F49DCD9F80000102845DCCDE900B1D2
:1049F000CDE902950998049042F268510A98CDE9F0
:104A00000503C2F20041104642462346CDF81CE0A1
:104A100011F052FB0BB0BDE8F08F00BFD8F81400C6
:104A200000287FF4B8AE42F25850C2F2004000783D
:104A300001283FF6B0AED9E902077843042839DBF4
:104A4000CDE9193E0A98189009985B46CDE91650B1
:104A5000CDE914C9084641460BB0BDE8F04F0DF052
:104A6000A3BB00BF022F0A46614605D2D9F808C091
:104A7000BCF1010F7FF4D2AECDF868E019930A982B
:104A800018900998179016951046CDF854901491E7
:104A9000414622465B460BB0BDE8F04F08F05CBFD4
:104AA000CDE9193E0A9918910999CDE91651CDE938
:104AB00014C9EDE7CDE9193E0A9818900998CDE997
:104AC0001650CDE914C9084641465B460BB0BDE817
:104AD000F04F08F041BF00BFD9F80C70BE072FD0CF
:104AE0000DF1600C8CE80940CDE9165BCDE9141995
:104AF00010464146224653460BB0BDE8F04F08F041
:104B0000C7BE00BFB7F5807F3FF71AAED9F8005097
:104B1000B5F5807F3FF714AE15F001057FF410AEB8
:104B2000D8F80850012D7FF40BAED8F80C50012DA9
:104B30007FF406AECDE900A1CDE9029C32E000BFD2
:104B4000D9F80060AC4641F271757E43AE426546CD
:104B500010DB0DF1600C8CE80940CDE9165BCDE966
:104B6000141910464146224653460BB0BDE8F04F9B
:104B70000EF02EB8D9F80060F5076546B0D1D8F828
:104B80000850012D6546ABD1D8F80C50012D654673
:104B9000A6D1774341F27076B742A1DCCDE900A1FE
:104BA000CDE9029542F268510693CDE904B0C2F214
:104BB0000041104642462346CDF81CE012F01CFA94
:104BC0000BB0BDE8F08F00002DE9F0438D68DDF8F3
:104BD0002490DDE90C74DDE90A86012DDDE907CEBC
:104BE0002ED11D68012D2BD1CD69012D28D10D6A43
:104BF000012D25D1DEF80850032D2DD1DEF804500B
:104C0000032D29D18D69012D05DC4D69012D02DCB3
:104C10001D7BAD072CD08D69012D1DDC4D69012D4B
:104C20001ADC1D7BAD0717D00D94CDE90B67CDE9DC
:104C30000998CDE907CEBDE8F04309F0D1BF00BF28
:104C40000D94CDE90B67CDE90998CDE907CEBDE814
:104C5000F0430AF019BF00BF0D94CDE90B67CDE911
:104C60000998CDE907CEBDE8F0430BF0CDBC00BFFD
:104C70000D94CDE90B67CDE90998CDE907CEBDE8E4
:104C8000F0430DF0BDBD00002DE9F04F95B0DDE91A
:104C90002886934613910146B210DDE9214A1E98F9
:104CA000012ADDE926E9DDE924C7C0F11F05C4F1C9
:104CB0001F041F98CDF808B0C0F28681C0EA0040FA
:104CC000CEF11F07CBEA0B460390681E1290601EC0
:104CD0000D90781E0C90081F139901940C1F511C05
:104CE000239A043A04960095149300BF139054F845
:104CF000046FCDE909122FFA96F70B94139951F826
:104D0000040F13912FFA90F204992FFA80F092FA7F
:104D100001F2119290FA01F0229982B2129D8A401A
:104D20008A4682FB0314C5F120032FFA86F20F9303
:104D3000039E04FA03FC97FA06F7109792FA06F21C
:104D4000079297B2E940B5F120062A46209D41EA34
:104D50000C0107FA0AF3059683FB05754FEA10402C
:104D600058BF44FA06F1DDF834E000FA0AF0CEF15B
:104D7000200627FA0EF705FA06F4BEF1200844EAE9
:104D800007040E9658BF45FA08F401310C9B013414
:104D9000C3F120076410B3F1200B04EB6101259CE3
:104DA00081FB041404FA07F521FA03F1289B41EA78
:104DB0000501289D58BF44FA0BF1249C013104EBF6
:104DC000610614994E4580FB0101D8BF4E46DDF8BF
:104DD0003CC0D0409E4201FA0CF4A8BF1E46079A80
:104DE000209B120C089602FA0AF22043059E82FBD1
:104DF0000324002E334658BF41FA06F00E9E22FAD5
:104E00000EF204FA06F1B8F1000F41EA020100F1D6
:104E1000010058BF44FA08F1DDF830E0069701318F
:104E2000BBF1000F4FEA610101EB6000259980FBA7
:104E3000010101FA07F220FA0EF040EA0200289A76
:104E400058BF41FA0BF02499013001EB600A119828
:104E500080B22299CA4500FA01F0D8BFCA46149917
:104E6000924580FB0101A8BFAA46129C01FA0CF2F0
:104E7000109DE040ACB2229D104304FA05F2209C44
:104E8000002B58BF41FA03F082FB0424B8F1000F55
:104E900000F10100AC4604FA06F10D9E22FA06F27A
:104EA00041EA020158BF44FA08F1BBF1000F01F1D9
:104EB00001014FEA610101EB6000259980FB0101CE
:104EC00001FA07F2209F20FA0EF040EA020058BFD4
:104ED00041FA0BF02499013001EB60021198000CAB
:104EE0001499A8404A45D8BF4A4680FB0101289D35
:104EF000AA42129D20FA05F0289D0F9CA8BF2A46C1
:104F0000109D01FA04F42D0C204305FA0CF4002B3B
:104F100084FB0745259F58BF41FA03F00E9924FAF8
:104F200006F305FA01F10B9C1943B8F1000F58BFC5
:104F300045FA08F10130069B0131BBF1000F4FEA41
:104F40006101DDF890C001EB6000DDF8A08080FB1E
:104F5000070101FA03F320FA0EF040EA030058BFFC
:104F600041FA0BF0149B01300CEB60004845D8BFB0
:104F700048464045A8BF40460899C9B2000662F3BA
:104F80000F205FFA8AF20844099940EA02400A9A1F
:104F9000013942F8040F139801293FF6A7AE04F136
:104FA000040B0432DDF888A0299EDDF898E0043077
:104FB000DDE90054129016F00300CDF84CB00CD18E
:104FC000002015B0BDE8F08F1291DDF84CB0239AA7
:104FD00016F00300CDF84CB0F2D010901298029960
:104FE000CEF11F0B90F9000016466A1E119601447F
:104FF000601E01FA0AF1C2F1200681FB03E4139955
:105000000B9691F90050BBF1010104FA06FB1F9EBB
:105010002E442EFA02F506FA0AFE45EA0B06209DFA
:105020000D92203A0C928EFB05E558BF44FA02F629
:10503000C0F120020A9205FA02F40E902EFA00F254
:105040001443B0F120021098099258BF45FA02F4B7
:10505000751CC1F120020134089264100F9104EB19
:10506000650484FB074505FA02F6CC402643B1F1FE
:10507000200458BF45FA04F6751C0CEB65054D4538
:10508000D8BF4D464545A8BF4546119901280D702A
:1050900096D01298079444460B9A90F901500298C2
:1050A000E046CC460544139805FA0AF5209985FB9D
:1050B000035690F901E01F9806FA02F900EB0E0280
:1050C000A6460D9CE54002FA0AF245EA0905E146CA
:1050D000C446B8460C9F82FB0124002F58BF46FAF5
:1050E00007F50A9E0E9F04FA06F6FA403243099E1F
:1050F000002E58BF44FA06F26E1C089C0132DDF8FF
:105100001CB05210BBF1000F02EB660282FB0826B6
:1051100006FA04F50F9C22FA04F242EA050258BF8F
:1051200046FA0BF201320CEB62024A45D8BF4A46FE
:10513000109C7245A4F10306A8BF7246119D16F19A
:10514000030F6A703FF63CAF04461298029A0D9E18
:1051500090F90200104400FA0AF080FB0302139B4E
:1051600093F90230F04023440B9C02FA04F70C9CA4
:1051700003FA0AF3384383FB0137002C58BF42FA85
:1051800004F00E990A9A23FA01F107FA02F20130AB
:105190001143099A002A58BF47FA02F10F9ABBF14E
:1051A000000F01F101014FEA610101EB600080FB9A
:1051B000080120FA02F0089A01FA02F240EA02001D
:1051C00058BF41FA0BF001300CEB60004845C8BFF6
:1051D0008146F145A8BFF14685F80290002015B040
:1051E000BDE8F08F000000002DE9F04F81B02DEDFB
:1051F000028BB0B00C92027E0392D3E90123159387
:10520000037C10913F990493037B0F93037D012A44
:1052100014930E92C96826912A908068279055DBD6
:105220001598012852DB1098DDF854A042F2005E78
:105230000AF00309D0E90210A1EB0A01002201FBE8
:1052400000F8011801EB010CC2F2004E00254FF0EE
:10525000000B08E00BF1010B159B0E991D448B45CB
:1052600042449A4432D0B9F1000F15D04EF82520AF
:10527000B9F1010F05F1010702440ED04EF82720C5
:10528000B9F1020F05F10207024406D04EF82720BB
:10529000EF1C024401E000BF2F4615990429D9D321
:1052A0000EEB8701AAEB0707103900BF1346024433
:1052B000861841F8103F8419043FC1E9012600EB2C
:1052C0000402CC60F2D103EB0C02C3E73F98049FC9
:1052D000159DD0F804E0BEF1010FDDE90F68C0F2C2
:1052E000878680680128C0F283860E9A9FED878AA0
:1052F000DDF898906A433C9C2D92A4F1080102FBD2
:1053000009FC0B913E994FEA8C034FF6FE7CC7F6E1
:10531000FF7C0D9322F007032293A9F101030A9366
:1053200009EA0C03DDF850901C9302F00303179375
:10533000C9F100030293AB002E9309F102034FF66B
:10534000FC79DDF80CC0C7F6FF79CCF1000A0193B7
:10535000930002EA0902DDF800B12B935342524652
:105360000439099104F144010891002116930DE0DC
:105370003F99DDE9047CD1F804E0DDE90612013152
:105380003A447145ACEB070C80F232860128F6DB1B
:1053900022EAE27007926044149A0691794305FB71
:1053A000002200231B92039A8C1A019905FB00101E
:1053B000CDF814C01A90E00F12900E98204411906E
:1053C0006042139400EAE47025900298199031E04D
:1053D00091ED001A94ED082AA2EE010A3E9901EB24
:1053E0008B0090ED001A2A9830EE010A90ED0B1A0E
:1053F00080FE010A90ED0C1A2C9880FE410AA0EC68
:10540000010A2C903F98189B0F9E013319998068D0
:10541000314419911B998342A1EB06011B911A9902
:10542000159DDDF84080139CDDF8B0B0A1EB0601BE
:105430001A919DDA03FB06F01499471A1298D8E9DD
:10544000011600EBD7721198884207EB0500C8BF20
:105450000132B04206FB0479C8BF42F0010242F2B9
:10546000A420CDF8B0B0002AC2F20040189300F09A
:105470003581A1EB040A0E99F61B8A45A8BF8A461E
:10548000AE42A8BF2E460D99D8F80C801DF0D5FF6E
:1054900026980128C0F234822598504568DA78426F
:1054A00000EAE7702F90B04262DA199842F2005396
:1054B0001B99C2F2004320EAE07008FB09F20144A4
:1054C00003EB810124911A99002308440C9901EB04
:1054D000820242F2A421C2F20041239201EB800138
:1054E0000EE000BF289B27980133269993FBF0F02C
:1054F0008B42239901EB80022B982999014437D0E4
:10550000DDE92498CDE9283109E000BF0000000062
:1055100008F101082E98D04581440144E2DA0B4697
:105520004D462F98CE4600BF5EF810BB00F1010C2F
:10553000B44552F82B7043F8087CE9DA6F68841C94
:10554000B44252F8277043F8047CE1DAAF68C41C17
:10555000B44252F827701F60DADAEF680430B042C4
:10556000754652F827705F6003F11003DCDBCFE76C
:105570002D9B092B40F0C881269842F2A42E0128C9
:10558000C2F2004EFFF63EAF0A98002800F09E845B
:105590000021099A4FF0000B2A9E2C9DDDF8F0C0E7
:1055A0001C9C00BF0EEB01030CEB010792ED012ADE
:1055B0000BF1020B93ED000A97ED001AA1EE002A01
:1055C00093ED010A97ED011A5C4501F14801A1EE46
:1055D000002A93ED020A97ED021AA1EE002A93ED3C
:1055E000030A97ED031AA1EE002A93ED040A97ED42
:1055F000041AA1EE002A93ED050A97ED051AA1EE13
:10560000002A93ED060A97ED061AA1EE002A93ED03
:10561000070A97ED071AA1EE002A93ED080A97ED05
:10562000081AA1EE002A96ED0B0A96ED0C1A82FEDE
:10563000000A80FE410A85ED000A93ED090A97ED04
:10564000091A92ED022A02F10802A1EE002A93ED56
:105650000A0A97ED0A1AA1EE002A93ED0B0A97EDBC
:105660000B1AA1EE002A93ED0C0A97ED0C1AA1EE8D
:10567000002A93ED0D0A97ED0D1AA1EE002A93ED85
:105680000E0A97ED0E1AA1EE002A93ED0F0A97ED80
:105690000F1AA1EE002A93ED100A97ED101AA1EE51
:1056A000002A93ED110A97ED111AA1EE002A96ED4A
:1056B0000B0A96ED0C1A82FE000A80FE410A85ED67
:1056C000010A05F108057FF46DAF71442C95269A07
:1056D000D2073FF497AE00F000BC00BFD8F80C0032
:1056E0000C992D9D00FB09F0092DDDF89CA001EB24
:1056F000800940F03B822698012842F20050C2F215
:105700000040FFF67FAE0168239141682F918168C8
:1057100024910146D0E90376D0E905EC0A980028E7
:10572000D1E9070800F012845D464FF0000BCDE987
:105730001D7CDDE9084749462990CDF884E0CDE994
:105740001F86CDF8A09000BF239B14ED111A2F984F
:1057500097ED012A01EB8302DDF890A0DDF874904B
:10576000209E92ED000A01EB8002A1EE002A14EDCA
:10577000101A92ED000A01EB8A02DDF884E0DDF8F0
:1057800078C0A1EE002A92ED000A14ED0F1A01EB89
:1057900089022998A1EE002A92ED000A14ED0E1A52
:1057A00001EB8602DDF87C80A1EE002A92ED000A72
:1057B00014ED0D1A01EB8E02A1EE002A92ED000A03
:1057C00014ED0C1A01EB8C02A1EE002A14ED0B0A69
:1057D00092ED001A01EB800201EB88012A98A0EEFD
:1057E000012A14ED0A0A92ED001A279AA0EE012A66
:1057F00014ED090A91ED001A0BF1010191FBF2F190
:10580000A0EE012A90ED0B0A289A90ED0C1A0BF1EC
:10581000020B02EB810101EB830282FE000A80FE93
:10582000410A85ED000A92ED000A2F9A14ED081A3C
:1058300097ED022A01EB8202A1EE002A14ED071A6D
:10584000083792ED000A01EB8A02A1EE002A14ED5E
:10585000061A92ED000A01EB8902DDE927A9A1EE03
:10586000002A92ED000A14ED051A01EB8602A1EE62
:10587000002A92ED000A14ED041A01EB8E02A1EE4B
:10588000002A92ED000A14ED031A01EB8C02A1EE3E
:10589000002A92ED001A299A14ED020AA0EE012ABC
:1058A00001EB820214ED011A01EB880192ED000A6E
:1058B000A1EE002A94ED000A91ED001A48349BFBFA
:1058C000FAF1A0EE012A90ED0B0A90ED0C1A1C984B
:1058D000584509EB810182FE000A80FE410A85EDF0
:1058E000010A05F108057FF42FAF2C958946299808
:1058F000DDF884E0DDE91F86DDE91D7C28E300BFDB
:105900002D9B092B3FF47EAD3F9842F2A429C2F2B1
:105910000049C468012CFFF675ADA9F108084FF0E5
:10592000000BDDF82CA04FF0000EA9F110002F9015
:1059300023E000BF3E982D9B2F9900EB8E000EF1C7
:10594000010E09EB8309A64590ED001A2A9831EE65
:10595000000A90ED0B1A80FE010A90ED0C1A2C98AB
:1059600080FE410AA0EC010A2C902B9883448244CB
:10597000804401442F913FF445AD082BC0F0868050
:10598000A44642F2A4243C9EC2F2004404EB0B0560
:1059900006EB0B01B0EE480A002095ED001A91EDE0
:1059A000002A229B00F10F02A2EE010A95ED011AD6
:1059B00091ED012A9A4200F108070BF12002A2EEB4
:1059C000010A95ED021A91ED022AA2EE010A95ED67
:1059D000031A91ED032AA2EE010A95ED041A91ED46
:1059E000042AA2EE010A95ED051A91ED052AA2EE10
:1059F000010A39D291ED061A95ED062AA1EE020AA6
:105A000091ED071A95ED072AA518B11807F10F00B7
:105A1000A1EE020A95ED001A91ED002A984207F1D5
:105A2000080702F12002A2EE010A91ED011A95ED9C
:105A3000012AA1EE020A91ED021A95ED022AA1EEC9
:105A4000020A91ED031A95ED032AA1EE020A91EDE7
:105A5000041A95ED042AA1EE020A91ED051A95EDBE
:105A6000052AA1EE020AC5D395ED061A91ED062A84
:105A7000A2EE010A95ED071A91ED072A2D9B6446C7
:105A8000A2EE010ABB427FF655AF06E0B0EE480A2F
:105A900000273C9EBB427FF64DAFD81B10F003029F
:105AA00032D00EFB03F0012A06EB800109EB8700E0
:105AB00001EB870590ED001A07F1010095ED002A32
:105AC000A2EE010A18D009EB8005022A01EB800042
:105AD00095ED001A90ED002A07F10200A2EE010AEE
